{
	"contracts/4_AthenianDemocracy.sol": {
		"AthenianDemocracy": {
			"abi": [
				{
					"inputs": [
						{
							"internalType": "uint256",
							"name": "_proposalId",
							"type": "uint256"
						}
					],
					"name": "finalizeProposal",
					"outputs": [],
					"stateMutability": "nonpayable",
					"type": "function"
				},
				{
					"inputs": [
						{
							"internalType": "uint256",
							"name": "",
							"type": "uint256"
						},
						{
							"internalType": "address",
							"name": "",
							"type": "address"
						}
					],
					"name": "hasVoted",
					"outputs": [
						{
							"internalType": "bool",
							"name": "",
							"type": "bool"
						}
					],
					"stateMutability": "view",
					"type": "function"
				},
				{
					"inputs": [],
					"name": "proposalCount",
					"outputs": [
						{
							"internalType": "uint256",
							"name": "",
							"type": "uint256"
						}
					],
					"stateMutability": "view",
					"type": "function"
				},
				{
					"inputs": [
						{
							"internalType": "uint256",
							"name": "",
							"type": "uint256"
						}
					],
					"name": "proposals",
					"outputs": [
						{
							"internalType": "string",
							"name": "ipfsHash",
							"type": "string"
						},
						{
							"internalType": "string",
							"name": "description",
							"type": "string"
						},
						{
							"internalType": "address",
							"name": "proposer",
							"type": "address"
						},
						{
							"internalType": "uint256",
							"name": "approvals",
							"type": "uint256"
						},
						{
							"internalType": "uint256",
							"name": "rejections",
							"type": "uint256"
						},
						{
							"internalType": "uint256",
							"name": "timestamp",
							"type": "uint256"
						},
						{
							"internalType": "bool",
							"name": "finalized",
							"type": "bool"
						},
						{
							"internalType": "bool",
							"name": "passed",
							"type": "bool"
						}
					],
					"stateMutability": "view",
					"type": "function"
				},
				{
					"inputs": [
						{
							"internalType": "string",
							"name": "_description",
							"type": "string"
						},
						{
							"internalType": "string",
							"name": "_ipfsHash",
							"type": "string"
						}
					],
					"name": "proposeLaw",
					"outputs": [],
					"stateMutability": "nonpayable",
					"type": "function"
				},
				{
					"inputs": [
						{
							"internalType": "uint256",
							"name": "_proposalId",
							"type": "uint256"
						},
						{
							"internalType": "bool",
							"name": "_approve",
							"type": "bool"
						}
					],
					"name": "vote",
					"outputs": [],
					"stateMutability": "nonpayable",
					"type": "function"
				}
			],
			"devdoc": {
				"kind": "dev",
				"methods": {},
				"version": 1
			},
			"evm": {
				"assembly": "    /* \"contracts/4_AthenianDemocracy.sol\":62:1711  contract AthenianDemocracy {... */\n  mstore(0x40, 0x80)\n  callvalue\n  dup1\n  iszero\n  tag_1\n  jumpi\n  0x00\n  dup1\n  revert\ntag_1:\n  pop\n  dataSize(sub_0)\n  dup1\n  dataOffset(sub_0)\n  0x00\n  codecopy\n  0x00\n  return\nstop\n\nsub_0: assembly {\n        /* \"contracts/4_AthenianDemocracy.sol\":62:1711  contract AthenianDemocracy {... */\n      mstore(0x40, 0x80)\n      callvalue\n      dup1\n      iszero\n      tag_1\n      jumpi\n      0x00\n      dup1\n      revert\n    tag_1:\n      pop\n      jumpi(tag_2, lt(calldatasize, 0x04))\n      shr(0xe0, calldataload(0x00))\n      dup1\n      0x013cf08b\n      eq\n      tag_3\n      jumpi\n      dup1\n      0x43859632\n      eq\n      tag_4\n      jumpi\n      dup1\n      0x5652077c\n      eq\n      tag_5\n      jumpi\n      dup1\n      0xa91703ec\n      eq\n      tag_6\n      jumpi\n      dup1\n      0xc9d27afe\n      eq\n      tag_7\n      jumpi\n      dup1\n      0xda35c664\n      eq\n      tag_8\n      jumpi\n    tag_2:\n      0x00\n      dup1\n      revert\n        /* \"contracts/4_AthenianDemocracy.sol\":340:385  mapping(uint256 => Proposal) public proposals */\n    tag_3:\n      tag_9\n      0x04\n      dup1\n      calldatasize\n      sub\n      dup2\n      add\n      swap1\n      tag_10\n      swap2\n      swap1\n      tag_11\n      jump\t// in\n    tag_10:\n      tag_12\n      jump\t// in\n    tag_9:\n      mload(0x40)\n      tag_13\n      swap9\n      swap8\n      swap7\n      swap6\n      swap5\n      swap4\n      swap3\n      swap2\n      swap1\n      tag_14\n      jump\t// in\n    tag_13:\n      mload(0x40)\n      dup1\n      swap2\n      sub\n      swap1\n      return\n        /* \"contracts/4_AthenianDemocracy.sol\":394:454  mapping(uint256 => mapping(address => bool)) public hasVoted */\n    tag_4:\n      tag_15\n      0x04\n      dup1\n      calldatasize\n      sub\n      dup2\n      add\n      swap1\n      tag_16\n      swap2\n      swap1\n      tag_17\n      jump\t// in\n    tag_16:\n      tag_18\n      jump\t// in\n    tag_15:\n      mload(0x40)\n      tag_19\n      swap2\n      swap1\n      tag_20\n      jump\t// in\n    tag_19:\n      mload(0x40)\n      dup1\n      swap2\n      sub\n      swap1\n      return\n        /* \"contracts/4_AthenianDemocracy.sol\":1286:1708  function finalizeProposal(uint256 _proposalId) public {... */\n    tag_5:\n      tag_21\n      0x04\n      dup1\n      calldatasize\n      sub\n      dup2\n      add\n      swap1\n      tag_22\n      swap2\n      swap1\n      tag_11\n      jump\t// in\n    tag_22:\n      tag_23\n      jump\t// in\n    tag_21:\n      stop\n        /* \"contracts/4_AthenianDemocracy.sol\":500:843  function proposeLaw(string memory _description, string memory _ipfsHash) public {... */\n    tag_6:\n      tag_24\n      0x04\n      dup1\n      calldatasize\n      sub\n      dup2\n      add\n      swap1\n      tag_25\n      swap2\n      swap1\n      tag_26\n      jump\t// in\n    tag_25:\n      tag_27\n      jump\t// in\n    tag_24:\n      stop\n        /* \"contracts/4_AthenianDemocracy.sol\":851:1278  function vote(uint256 _proposalId, bool _approve) public {... */\n    tag_7:\n      tag_28\n      0x04\n      dup1\n      calldatasize\n      sub\n      dup2\n      add\n      swap1\n      tag_29\n      swap2\n      swap1\n      tag_30\n      jump\t// in\n    tag_29:\n      tag_31\n      jump\t// in\n    tag_28:\n      stop\n        /* \"contracts/4_AthenianDemocracy.sol\":463:491  uint256 public proposalCount */\n    tag_8:\n      tag_32\n      tag_33\n      jump\t// in\n    tag_32:\n      mload(0x40)\n      tag_34\n      swap2\n      swap1\n      tag_35\n      jump\t// in\n    tag_34:\n      mload(0x40)\n      dup1\n      swap2\n      sub\n      swap1\n      return\n        /* \"contracts/4_AthenianDemocracy.sol\":340:385  mapping(uint256 => Proposal) public proposals */\n    tag_12:\n      mstore(0x20, 0x00)\n      dup1\n      0x00\n      mstore\n      keccak256(0x00, 0x40)\n      0x00\n      swap2\n      pop\n      swap1\n      pop\n      dup1\n      0x00\n      add\n      dup1\n      sload\n      tag_36\n      swap1\n      tag_37\n      jump\t// in\n    tag_36:\n      dup1\n      0x1f\n      add\n      0x20\n      dup1\n      swap2\n      div\n      mul\n      0x20\n      add\n      mload(0x40)\n      swap1\n      dup2\n      add\n      0x40\n      mstore\n      dup1\n      swap3\n      swap2\n      swap1\n      dup2\n      dup2\n      mstore\n      0x20\n      add\n      dup3\n      dup1\n      sload\n      tag_38\n      swap1\n      tag_37\n      jump\t// in\n    tag_38:\n      dup1\n      iszero\n      tag_39\n      jumpi\n      dup1\n      0x1f\n      lt\n      tag_40\n      jumpi\n      0x0100\n      dup1\n      dup4\n      sload\n      div\n      mul\n      dup4\n      mstore\n      swap2\n      0x20\n      add\n      swap2\n      jump(tag_39)\n    tag_40:\n      dup3\n      add\n      swap2\n      swap1\n      0x00\n      mstore\n      keccak256(0x00, 0x20)\n      swap1\n    tag_41:\n      dup2\n      sload\n      dup2\n      mstore\n      swap1\n      0x01\n      add\n      swap1\n      0x20\n      add\n      dup1\n      dup4\n      gt\n      tag_41\n      jumpi\n      dup3\n      swap1\n      sub\n      0x1f\n      and\n      dup3\n      add\n      swap2\n    tag_39:\n      pop\n      pop\n      pop\n      pop\n      pop\n      swap1\n      dup1\n      0x01\n      add\n      dup1\n      sload\n      tag_42\n      swap1\n      tag_37\n      jump\t// in\n    tag_42:\n      dup1\n      0x1f\n      add\n      0x20\n      dup1\n      swap2\n      div\n      mul\n      0x20\n      add\n      mload(0x40)\n      swap1\n      dup2\n      add\n      0x40\n      mstore\n      dup1\n      swap3\n      swap2\n      swap1\n      dup2\n      dup2\n      mstore\n      0x20\n      add\n      dup3\n      dup1\n      sload\n      tag_43\n      swap1\n      tag_37\n      jump\t// in\n    tag_43:\n      dup1\n      iszero\n      tag_44\n      jumpi\n      dup1\n      0x1f\n      lt\n      tag_45\n      jumpi\n      0x0100\n      dup1\n      dup4\n      sload\n      div\n      mul\n      dup4\n      mstore\n      swap2\n      0x20\n      add\n      swap2\n      jump(tag_44)\n    tag_45:\n      dup3\n      add\n      swap2\n      swap1\n      0x00\n      mstore\n      keccak256(0x00, 0x20)\n      swap1\n    tag_46:\n      dup2\n      sload\n      dup2\n      mstore\n      swap1\n      0x01\n      add\n      swap1\n      0x20\n      add\n      dup1\n      dup4\n      gt\n      tag_46\n      jumpi\n      dup3\n      swap1\n      sub\n      0x1f\n      and\n      dup3\n      add\n      swap2\n    tag_44:\n      pop\n      pop\n      pop\n      pop\n      pop\n      swap1\n      dup1\n      0x02\n      add\n      0x00\n      swap1\n      sload\n      swap1\n      0x0100\n      exp\n      swap1\n      div\n      0xffffffffffffffffffffffffffffffffffffffff\n      and\n      swap1\n      dup1\n      0x03\n      add\n      sload\n      swap1\n      dup1\n      0x04\n      add\n      sload\n      swap1\n      dup1\n      0x05\n      add\n      sload\n      swap1\n      dup1\n      0x06\n      add\n      0x00\n      swap1\n      sload\n      swap1\n      0x0100\n      exp\n      swap1\n      div\n      0xff\n      and\n      swap1\n      dup1\n      0x06\n      add\n      0x01\n      swap1\n      sload\n      swap1\n      0x0100\n      exp\n      swap1\n      div\n      0xff\n      and\n      swap1\n      pop\n      dup9\n      jump\t// out\n        /* \"contracts/4_AthenianDemocracy.sol\":394:454  mapping(uint256 => mapping(address => bool)) public hasVoted */\n    tag_18:\n      mstore(0x20, 0x01)\n      dup2\n      0x00\n      mstore\n      mstore(0x20, keccak256(0x00, 0x40))\n      dup1\n      0x00\n      mstore\n      keccak256(0x00, 0x40)\n      0x00\n      swap2\n      pop\n      swap2\n      pop\n      swap1\n      sload\n      swap1\n      0x0100\n      exp\n      swap1\n      div\n      0xff\n      and\n      dup2\n      jump\t// out\n        /* \"contracts/4_AthenianDemocracy.sol\":1286:1708  function finalizeProposal(uint256 _proposalId) public {... */\n    tag_23:\n        /* \"contracts/4_AthenianDemocracy.sol\":1361:1370  proposals */\n      0x00\n        /* \"contracts/4_AthenianDemocracy.sol\":1361:1383  proposals[_proposalId] */\n      dup1\n        /* \"contracts/4_AthenianDemocracy.sol\":1371:1382  _proposalId */\n      dup3\n        /* \"contracts/4_AthenianDemocracy.sol\":1361:1383  proposals[_proposalId] */\n      dup2\n      mstore\n      0x20\n      add\n      swap1\n      dup2\n      mstore\n      0x20\n      add\n      0x00\n      keccak256\n        /* \"contracts/4_AthenianDemocracy.sol\":1361:1393  proposals[_proposalId].finalized */\n      0x06\n      add\n      0x00\n      swap1\n      sload\n      swap1\n      0x0100\n      exp\n      swap1\n      div\n      0xff\n      and\n        /* \"contracts/4_AthenianDemocracy.sol\":1360:1393  !proposals[_proposalId].finalized */\n      iszero\n        /* \"contracts/4_AthenianDemocracy.sol\":1359:1464  (!proposals[_proposalId].finalized) && (block.timestamp - proposals[_proposalId].timestamp >= 10 minutes) */\n      dup1\n      iszero\n      tag_48\n      jumpi\n      pop\n        /* \"contracts/4_AthenianDemocracy.sol\":1453:1463  10 minutes */\n      0x0258\n        /* \"contracts/4_AthenianDemocracy.sol\":1417:1426  proposals */\n      0x00\n        /* \"contracts/4_AthenianDemocracy.sol\":1417:1439  proposals[_proposalId] */\n      dup1\n        /* \"contracts/4_AthenianDemocracy.sol\":1427:1438  _proposalId */\n      dup4\n        /* \"contracts/4_AthenianDemocracy.sol\":1417:1439  proposals[_proposalId] */\n      dup2\n      mstore\n      0x20\n      add\n      swap1\n      dup2\n      mstore\n      0x20\n      add\n      0x00\n      keccak256\n        /* \"contracts/4_AthenianDemocracy.sol\":1417:1449  proposals[_proposalId].timestamp */\n      0x05\n      add\n      sload\n        /* \"contracts/4_AthenianDemocracy.sol\":1399:1414  block.timestamp */\n      timestamp\n        /* \"contracts/4_AthenianDemocracy.sol\":1399:1449  block.timestamp - proposals[_proposalId].timestamp */\n      tag_49\n      swap2\n      swap1\n      tag_50\n      jump\t// in\n    tag_49:\n        /* \"contracts/4_AthenianDemocracy.sol\":1399:1463  block.timestamp - proposals[_proposalId].timestamp >= 10 minutes */\n      lt\n      iszero\n        /* \"contracts/4_AthenianDemocracy.sol\":1359:1464  (!proposals[_proposalId].finalized) && (block.timestamp - proposals[_proposalId].timestamp >= 10 minutes) */\n    tag_48:\n        /* \"contracts/4_AthenianDemocracy.sol\":1351:1509  require((!proposals[_proposalId].finalized) && (block.timestamp - proposals[_proposalId].timestamp >= 10 minutes) , \"Vote was not finish or already finish.\" ) */\n      tag_51\n      jumpi\n      mload(0x40)\n      0x08c379a000000000000000000000000000000000000000000000000000000000\n      dup2\n      mstore\n      0x04\n      add\n      tag_52\n      swap1\n      tag_53\n      jump\t// in\n    tag_52:\n      mload(0x40)\n      dup1\n      swap2\n      sub\n      swap1\n      revert\n    tag_51:\n        /* \"contracts/4_AthenianDemocracy.sol\":1555:1559  true */\n      0x01\n        /* \"contracts/4_AthenianDemocracy.sol\":1520:1529  proposals */\n      0x00\n        /* \"contracts/4_AthenianDemocracy.sol\":1520:1542  proposals[_proposalId] */\n      dup1\n        /* \"contracts/4_AthenianDemocracy.sol\":1530:1541  _proposalId */\n      dup4\n        /* \"contracts/4_AthenianDemocracy.sol\":1520:1542  proposals[_proposalId] */\n      dup2\n      mstore\n      0x20\n      add\n      swap1\n      dup2\n      mstore\n      0x20\n      add\n      0x00\n      keccak256\n        /* \"contracts/4_AthenianDemocracy.sol\":1520:1552  proposals[_proposalId].finalized */\n      0x06\n      add\n      0x00\n        /* \"contracts/4_AthenianDemocracy.sol\":1520:1559  proposals[_proposalId].finalized = true */\n      0x0100\n      exp\n      dup2\n      sload\n      dup2\n      0xff\n      mul\n      not\n      and\n      swap1\n      dup4\n      iszero\n      iszero\n      mul\n      or\n      swap1\n      sstore\n      pop\n        /* \"contracts/4_AthenianDemocracy.sol\":1607:1616  proposals */\n      0x00\n        /* \"contracts/4_AthenianDemocracy.sol\":1607:1629  proposals[_proposalId] */\n      dup1\n        /* \"contracts/4_AthenianDemocracy.sol\":1617:1628  _proposalId */\n      dup3\n        /* \"contracts/4_AthenianDemocracy.sol\":1607:1629  proposals[_proposalId] */\n      dup2\n      mstore\n      0x20\n      add\n      swap1\n      dup2\n      mstore\n      0x20\n      add\n      0x00\n      keccak256\n        /* \"contracts/4_AthenianDemocracy.sol\":1607:1640  proposals[_proposalId].rejections */\n      0x04\n      add\n      sload\n        /* \"contracts/4_AthenianDemocracy.sol\":1574:1583  proposals */\n      0x00\n        /* \"contracts/4_AthenianDemocracy.sol\":1574:1596  proposals[_proposalId] */\n      dup1\n        /* \"contracts/4_AthenianDemocracy.sol\":1584:1595  _proposalId */\n      dup4\n        /* \"contracts/4_AthenianDemocracy.sol\":1574:1596  proposals[_proposalId] */\n      dup2\n      mstore\n      0x20\n      add\n      swap1\n      dup2\n      mstore\n      0x20\n      add\n      0x00\n      keccak256\n        /* \"contracts/4_AthenianDemocracy.sol\":1574:1606  proposals[_proposalId].approvals */\n      0x03\n      add\n      sload\n        /* \"contracts/4_AthenianDemocracy.sol\":1574:1640  proposals[_proposalId].approvals>proposals[_proposalId].rejections */\n      gt\n        /* \"contracts/4_AthenianDemocracy.sol\":1570:1700  if (proposals[_proposalId].approvals>proposals[_proposalId].rejections){... */\n      iszero\n      tag_54\n      jumpi\n        /* \"contracts/4_AthenianDemocracy.sol\":1684:1688  true */\n      0x01\n        /* \"contracts/4_AthenianDemocracy.sol\":1652:1661  proposals */\n      0x00\n        /* \"contracts/4_AthenianDemocracy.sol\":1652:1674  proposals[_proposalId] */\n      dup1\n        /* \"contracts/4_AthenianDemocracy.sol\":1662:1673  _proposalId */\n      dup4\n        /* \"contracts/4_AthenianDemocracy.sol\":1652:1674  proposals[_proposalId] */\n      dup2\n      mstore\n      0x20\n      add\n      swap1\n      dup2\n      mstore\n      0x20\n      add\n      0x00\n      keccak256\n        /* \"contracts/4_AthenianDemocracy.sol\":1652:1681  proposals[_proposalId].passed */\n      0x06\n      add\n      0x01\n        /* \"contracts/4_AthenianDemocracy.sol\":1652:1688  proposals[_proposalId].passed = true */\n      0x0100\n      exp\n      dup2\n      sload\n      dup2\n      0xff\n      mul\n      not\n      and\n      swap1\n      dup4\n      iszero\n      iszero\n      mul\n      or\n      swap1\n      sstore\n      pop\n        /* \"contracts/4_AthenianDemocracy.sol\":1570:1700  if (proposals[_proposalId].approvals>proposals[_proposalId].rejections){... */\n    tag_54:\n        /* \"contracts/4_AthenianDemocracy.sol\":1286:1708  function finalizeProposal(uint256 _proposalId) public {... */\n      pop\n      jump\t// out\n        /* \"contracts/4_AthenianDemocracy.sol\":500:843  function proposeLaw(string memory _description, string memory _ipfsHash) public {... */\n    tag_27:\n        /* \"contracts/4_AthenianDemocracy.sol\":628:629  0 */\n      0x00\n        /* \"contracts/4_AthenianDemocracy.sol\":605:617  _description */\n      dup3\n        /* \"contracts/4_AthenianDemocracy.sol\":599:625  bytes(_description).length */\n      mload\n        /* \"contracts/4_AthenianDemocracy.sol\":599:629  bytes(_description).length > 0 */\n      gt\n        /* \"contracts/4_AthenianDemocracy.sol\":591:634  require(bytes(_description).length > 0, \"\") */\n      tag_56\n      jumpi\n      mload(0x40)\n      0x08c379a000000000000000000000000000000000000000000000000000000000\n      dup2\n      mstore\n      0x04\n      add\n      tag_57\n      swap1\n      tag_58\n      jump\t// in\n    tag_57:\n      mload(0x40)\n      dup1\n      swap2\n      sub\n      swap1\n      revert\n    tag_56:\n        /* \"contracts/4_AthenianDemocracy.sol\":647:674  Proposal memory newProposal */\n      0x00\n        /* \"contracts/4_AthenianDemocracy.sol\":677:759  Proposal(_ipfsHash, _description, msg.sender, 0, 0, block.timestamp, false, false) */\n      mload(0x40)\n      dup1\n      0x0100\n      add\n      0x40\n      mstore\n      dup1\n        /* \"contracts/4_AthenianDemocracy.sol\":686:695  _ipfsHash */\n      dup4\n        /* \"contracts/4_AthenianDemocracy.sol\":677:759  Proposal(_ipfsHash, _description, msg.sender, 0, 0, block.timestamp, false, false) */\n      dup2\n      mstore\n      0x20\n      add\n        /* \"contracts/4_AthenianDemocracy.sol\":697:709  _description */\n      dup5\n        /* \"contracts/4_AthenianDemocracy.sol\":677:759  Proposal(_ipfsHash, _description, msg.sender, 0, 0, block.timestamp, false, false) */\n      dup2\n      mstore\n      0x20\n      add\n        /* \"contracts/4_AthenianDemocracy.sol\":711:721  msg.sender */\n      caller\n        /* \"contracts/4_AthenianDemocracy.sol\":677:759  Proposal(_ipfsHash, _description, msg.sender, 0, 0, block.timestamp, false, false) */\n      0xffffffffffffffffffffffffffffffffffffffff\n      and\n      dup2\n      mstore\n      0x20\n      add\n        /* \"contracts/4_AthenianDemocracy.sol\":723:724  0 */\n      0x00\n        /* \"contracts/4_AthenianDemocracy.sol\":677:759  Proposal(_ipfsHash, _description, msg.sender, 0, 0, block.timestamp, false, false) */\n      dup2\n      mstore\n      0x20\n      add\n        /* \"contracts/4_AthenianDemocracy.sol\":726:727  0 */\n      0x00\n        /* \"contracts/4_AthenianDemocracy.sol\":677:759  Proposal(_ipfsHash, _description, msg.sender, 0, 0, block.timestamp, false, false) */\n      dup2\n      mstore\n      0x20\n      add\n        /* \"contracts/4_AthenianDemocracy.sol\":729:744  block.timestamp */\n      timestamp\n        /* \"contracts/4_AthenianDemocracy.sol\":677:759  Proposal(_ipfsHash, _description, msg.sender, 0, 0, block.timestamp, false, false) */\n      dup2\n      mstore\n      0x20\n      add\n        /* \"contracts/4_AthenianDemocracy.sol\":746:751  false */\n      0x00\n        /* \"contracts/4_AthenianDemocracy.sol\":677:759  Proposal(_ipfsHash, _description, msg.sender, 0, 0, block.timestamp, false, false) */\n      iszero\n      iszero\n      dup2\n      mstore\n      0x20\n      add\n        /* \"contracts/4_AthenianDemocracy.sol\":753:758  false */\n      0x00\n        /* \"contracts/4_AthenianDemocracy.sol\":677:759  Proposal(_ipfsHash, _description, msg.sender, 0, 0, block.timestamp, false, false) */\n      iszero\n      iszero\n      dup2\n      mstore\n      pop\n        /* \"contracts/4_AthenianDemocracy.sol\":647:759  Proposal memory newProposal = Proposal(_ipfsHash, _description, msg.sender, 0, 0, block.timestamp, false, false) */\n      swap1\n      pop\n        /* \"contracts/4_AthenianDemocracy.sol\":770:783  proposalCount */\n      0x02\n      0x00\n        /* \"contracts/4_AthenianDemocracy.sol\":770:785  proposalCount++ */\n      dup2\n      sload\n      dup1\n      swap3\n      swap2\n      swap1\n      tag_59\n      swap1\n      tag_60\n      jump\t// in\n    tag_59:\n      swap2\n      swap1\n      pop\n      sstore\n      pop\n        /* \"contracts/4_AthenianDemocracy.sol\":823:834  newProposal */\n      dup1\n        /* \"contracts/4_AthenianDemocracy.sol\":796:805  proposals */\n      0x00\n        /* \"contracts/4_AthenianDemocracy.sol\":796:820  proposals[proposalCount] */\n      dup1\n        /* \"contracts/4_AthenianDemocracy.sol\":806:819  proposalCount */\n      sload(0x02)\n        /* \"contracts/4_AthenianDemocracy.sol\":796:820  proposals[proposalCount] */\n      dup2\n      mstore\n      0x20\n      add\n      swap1\n      dup2\n      mstore\n      0x20\n      add\n      0x00\n      keccak256\n        /* \"contracts/4_AthenianDemocracy.sol\":796:834  proposals[proposalCount] = newProposal */\n      0x00\n      dup3\n      add\n      mload\n      dup2\n      0x00\n      add\n      swap1\n      dup2\n      tag_61\n      swap2\n      swap1\n      tag_62\n      jump\t// in\n    tag_61:\n      pop\n      0x20\n      dup3\n      add\n      mload\n      dup2\n      0x01\n      add\n      swap1\n      dup2\n      tag_63\n      swap2\n      swap1\n      tag_62\n      jump\t// in\n    tag_63:\n      pop\n      0x40\n      dup3\n      add\n      mload\n      dup2\n      0x02\n      add\n      exp(0x0100, 0x00)\n      dup2\n      sload\n      dup2\n      0xffffffffffffffffffffffffffffffffffffffff\n      mul\n      not\n      and\n      swap1\n      dup4\n      0xffffffffffffffffffffffffffffffffffffffff\n      and\n      mul\n      or\n      swap1\n      sstore\n      pop\n      0x60\n      dup3\n      add\n      mload\n      dup2\n      0x03\n      add\n      sstore\n      0x80\n      dup3\n      add\n      mload\n      dup2\n      0x04\n      add\n      sstore\n      0xa0\n      dup3\n      add\n      mload\n      dup2\n      0x05\n      add\n      sstore\n      0xc0\n      dup3\n      add\n      mload\n      dup2\n      0x06\n      add\n      exp(0x0100, 0x00)\n      dup2\n      sload\n      dup2\n      0xff\n      mul\n      not\n      and\n      swap1\n      dup4\n      iszero\n      iszero\n      mul\n      or\n      swap1\n      sstore\n      pop\n      0xe0\n      dup3\n      add\n      mload\n      dup2\n      0x06\n      add\n      exp(0x0100, 0x01)\n      dup2\n      sload\n      dup2\n      0xff\n      mul\n      not\n      and\n      swap1\n      dup4\n      iszero\n      iszero\n      mul\n      or\n      swap1\n      sstore\n      pop\n      swap1\n      pop\n      pop\n        /* \"contracts/4_AthenianDemocracy.sol\":580:843  {... */\n      pop\n        /* \"contracts/4_AthenianDemocracy.sol\":500:843  function proposeLaw(string memory _description, string memory _ipfsHash) public {... */\n      pop\n      pop\n      jump\t// out\n        /* \"contracts/4_AthenianDemocracy.sol\":851:1278  function vote(uint256 _proposalId, bool _approve) public {... */\n    tag_31:\n        /* \"contracts/4_AthenianDemocracy.sol\":919:948  finalizeProposal(_proposalId) */\n      tag_65\n        /* \"contracts/4_AthenianDemocracy.sol\":936:947  _proposalId */\n      dup3\n        /* \"contracts/4_AthenianDemocracy.sol\":919:935  finalizeProposal */\n      tag_23\n        /* \"contracts/4_AthenianDemocracy.sol\":919:948  finalizeProposal(_proposalId) */\n      jump\t// in\n    tag_65:\n        /* \"contracts/4_AthenianDemocracy.sol\":968:977  proposals */\n      0x00\n        /* \"contracts/4_AthenianDemocracy.sol\":968:990  proposals[_proposalId] */\n      dup1\n        /* \"contracts/4_AthenianDemocracy.sol\":978:989  _proposalId */\n      dup4\n        /* \"contracts/4_AthenianDemocracy.sol\":968:990  proposals[_proposalId] */\n      dup2\n      mstore\n      0x20\n      add\n      swap1\n      dup2\n      mstore\n      0x20\n      add\n      0x00\n      keccak256\n        /* \"contracts/4_AthenianDemocracy.sol\":968:1000  proposals[_proposalId].finalized */\n      0x06\n      add\n      0x00\n      swap1\n      sload\n      swap1\n      0x0100\n      exp\n      swap1\n      div\n      0xff\n      and\n        /* \"contracts/4_AthenianDemocracy.sol\":967:1000  !proposals[_proposalId].finalized */\n      iszero\n        /* \"contracts/4_AthenianDemocracy.sol\":967:1046  !proposals[_proposalId].finalized && hasVoted[_proposalId][msg.sender] == false */\n      dup1\n      iszero\n      tag_66\n      jumpi\n      pop\n        /* \"contracts/4_AthenianDemocracy.sol\":1041:1046  false */\n      0x00\n        /* \"contracts/4_AthenianDemocracy.sol\":1004:1046  hasVoted[_proposalId][msg.sender] == false */\n      iszero\n      iszero\n        /* \"contracts/4_AthenianDemocracy.sol\":1004:1012  hasVoted */\n      0x01\n        /* \"contracts/4_AthenianDemocracy.sol\":1004:1025  hasVoted[_proposalId] */\n      0x00\n        /* \"contracts/4_AthenianDemocracy.sol\":1013:1024  _proposalId */\n      dup5\n        /* \"contracts/4_AthenianDemocracy.sol\":1004:1025  hasVoted[_proposalId] */\n      dup2\n      mstore\n      0x20\n      add\n      swap1\n      dup2\n      mstore\n      0x20\n      add\n      0x00\n      keccak256\n        /* \"contracts/4_AthenianDemocracy.sol\":1004:1037  hasVoted[_proposalId][msg.sender] */\n      0x00\n        /* \"contracts/4_AthenianDemocracy.sol\":1026:1036  msg.sender */\n      caller\n        /* \"contracts/4_AthenianDemocracy.sol\":1004:1037  hasVoted[_proposalId][msg.sender] */\n      0xffffffffffffffffffffffffffffffffffffffff\n      and\n      0xffffffffffffffffffffffffffffffffffffffff\n      and\n      dup2\n      mstore\n      0x20\n      add\n      swap1\n      dup2\n      mstore\n      0x20\n      add\n      0x00\n      keccak256\n      0x00\n      swap1\n      sload\n      swap1\n      0x0100\n      exp\n      swap1\n      div\n      0xff\n      and\n        /* \"contracts/4_AthenianDemocracy.sol\":1004:1046  hasVoted[_proposalId][msg.sender] == false */\n      iszero\n      iszero\n      eq\n        /* \"contracts/4_AthenianDemocracy.sol\":967:1046  !proposals[_proposalId].finalized && hasVoted[_proposalId][msg.sender] == false */\n    tag_66:\n        /* \"contracts/4_AthenianDemocracy.sol\":959:1072  require(!proposals[_proposalId].finalized && hasVoted[_proposalId][msg.sender] == false, \"Vote cannot be send.\" ) */\n      tag_67\n      jumpi\n      mload(0x40)\n      0x08c379a000000000000000000000000000000000000000000000000000000000\n      dup2\n      mstore\n      0x04\n      add\n      tag_68\n      swap1\n      tag_69\n      jump\t// in\n    tag_68:\n      mload(0x40)\n      dup1\n      swap2\n      sub\n      swap1\n      revert\n    tag_67:\n        /* \"contracts/4_AthenianDemocracy.sol\":1119:1123  true */\n      0x01\n        /* \"contracts/4_AthenianDemocracy.sol\":1083:1091  hasVoted */\n      dup1\n        /* \"contracts/4_AthenianDemocracy.sol\":1083:1104  hasVoted[_proposalId] */\n      0x00\n        /* \"contracts/4_AthenianDemocracy.sol\":1092:1103  _proposalId */\n      dup5\n        /* \"contracts/4_AthenianDemocracy.sol\":1083:1104  hasVoted[_proposalId] */\n      dup2\n      mstore\n      0x20\n      add\n      swap1\n      dup2\n      mstore\n      0x20\n      add\n      0x00\n      keccak256\n        /* \"contracts/4_AthenianDemocracy.sol\":1083:1116  hasVoted[_proposalId][msg.sender] */\n      0x00\n        /* \"contracts/4_AthenianDemocracy.sol\":1105:1115  msg.sender */\n      caller\n        /* \"contracts/4_AthenianDemocracy.sol\":1083:1116  hasVoted[_proposalId][msg.sender] */\n      0xffffffffffffffffffffffffffffffffffffffff\n      and\n      0xffffffffffffffffffffffffffffffffffffffff\n      and\n      dup2\n      mstore\n      0x20\n      add\n      swap1\n      dup2\n      mstore\n      0x20\n      add\n      0x00\n      keccak256\n      0x00\n        /* \"contracts/4_AthenianDemocracy.sol\":1083:1123  hasVoted[_proposalId][msg.sender] = true */\n      0x0100\n      exp\n      dup2\n      sload\n      dup2\n      0xff\n      mul\n      not\n      and\n      swap1\n      dup4\n      iszero\n      iszero\n      mul\n      or\n      swap1\n      sstore\n      pop\n        /* \"contracts/4_AthenianDemocracy.sol\":1138:1146  _approve */\n      dup1\n        /* \"contracts/4_AthenianDemocracy.sol\":1134:1270  if (_approve){... */\n      iszero\n      tag_70\n      jumpi\n        /* \"contracts/4_AthenianDemocracy.sol\":1158:1167  proposals */\n      0x00\n        /* \"contracts/4_AthenianDemocracy.sol\":1158:1180  proposals[_proposalId] */\n      dup1\n        /* \"contracts/4_AthenianDemocracy.sol\":1168:1179  _proposalId */\n      dup4\n        /* \"contracts/4_AthenianDemocracy.sol\":1158:1180  proposals[_proposalId] */\n      dup2\n      mstore\n      0x20\n      add\n      swap1\n      dup2\n      mstore\n      0x20\n      add\n      0x00\n      keccak256\n        /* \"contracts/4_AthenianDemocracy.sol\":1158:1190  proposals[_proposalId].approvals */\n      0x03\n      add\n      0x00\n        /* \"contracts/4_AthenianDemocracy.sol\":1158:1192  proposals[_proposalId].approvals++ */\n      dup2\n      sload\n      dup1\n      swap3\n      swap2\n      swap1\n      tag_71\n      swap1\n      tag_60\n      jump\t// in\n    tag_71:\n      swap2\n      swap1\n      pop\n      sstore\n      pop\n        /* \"contracts/4_AthenianDemocracy.sol\":1134:1270  if (_approve){... */\n      jump(tag_72)\n    tag_70:\n        /* \"contracts/4_AthenianDemocracy.sol\":1223:1232  proposals */\n      0x00\n        /* \"contracts/4_AthenianDemocracy.sol\":1223:1245  proposals[_proposalId] */\n      dup1\n        /* \"contracts/4_AthenianDemocracy.sol\":1233:1244  _proposalId */\n      dup4\n        /* \"contracts/4_AthenianDemocracy.sol\":1223:1245  proposals[_proposalId] */\n      dup2\n      mstore\n      0x20\n      add\n      swap1\n      dup2\n      mstore\n      0x20\n      add\n      0x00\n      keccak256\n        /* \"contracts/4_AthenianDemocracy.sol\":1223:1256  proposals[_proposalId].rejections */\n      0x04\n      add\n      0x00\n        /* \"contracts/4_AthenianDemocracy.sol\":1223:1258  proposals[_proposalId].rejections++ */\n      dup2\n      sload\n      dup1\n      swap3\n      swap2\n      swap1\n      tag_73\n      swap1\n      tag_60\n      jump\t// in\n    tag_73:\n      swap2\n      swap1\n      pop\n      sstore\n      pop\n        /* \"contracts/4_AthenianDemocracy.sol\":1134:1270  if (_approve){... */\n    tag_72:\n        /* \"contracts/4_AthenianDemocracy.sol\":851:1278  function vote(uint256 _proposalId, bool _approve) public {... */\n      pop\n      pop\n      jump\t// out\n        /* \"contracts/4_AthenianDemocracy.sol\":463:491  uint256 public proposalCount */\n    tag_33:\n      sload(0x02)\n      dup2\n      jump\t// out\n        /* \"#utility.yul\":7:82   */\n    tag_74:\n        /* \"#utility.yul\":40:46   */\n      0x00\n        /* \"#utility.yul\":73:75   */\n      0x40\n        /* \"#utility.yul\":67:76   */\n      mload\n        /* \"#utility.yul\":57:76   */\n      swap1\n      pop\n        /* \"#utility.yul\":7:82   */\n      swap1\n      jump\t// out\n        /* \"#utility.yul\":88:205   */\n    tag_75:\n        /* \"#utility.yul\":197:198   */\n      0x00\n        /* \"#utility.yul\":194:195   */\n      dup1\n        /* \"#utility.yul\":187:199   */\n      revert\n        /* \"#utility.yul\":211:328   */\n    tag_76:\n        /* \"#utility.yul\":320:321   */\n      0x00\n        /* \"#utility.yul\":317:318   */\n      dup1\n        /* \"#utility.yul\":310:322   */\n      revert\n        /* \"#utility.yul\":334:411   */\n    tag_77:\n        /* \"#utility.yul\":371:378   */\n      0x00\n        /* \"#utility.yul\":400:405   */\n      dup2\n        /* \"#utility.yul\":389:405   */\n      swap1\n      pop\n        /* \"#utility.yul\":334:411   */\n      swap2\n      swap1\n      pop\n      jump\t// out\n        /* \"#utility.yul\":417:539   */\n    tag_78:\n        /* \"#utility.yul\":490:514   */\n      tag_133\n        /* \"#utility.yul\":508:513   */\n      dup2\n        /* \"#utility.yul\":490:514   */\n      tag_77\n      jump\t// in\n    tag_133:\n        /* \"#utility.yul\":483:488   */\n      dup2\n        /* \"#utility.yul\":480:515   */\n      eq\n        /* \"#utility.yul\":470:533   */\n      tag_134\n      jumpi\n        /* \"#utility.yul\":529:530   */\n      0x00\n        /* \"#utility.yul\":526:527   */\n      dup1\n        /* \"#utility.yul\":519:531   */\n      revert\n        /* \"#utility.yul\":470:533   */\n    tag_134:\n        /* \"#utility.yul\":417:539   */\n      pop\n      jump\t// out\n        /* \"#utility.yul\":545:684   */\n    tag_79:\n        /* \"#utility.yul\":591:596   */\n      0x00\n        /* \"#utility.yul\":629:635   */\n      dup2\n        /* \"#utility.yul\":616:636   */\n      calldataload\n        /* \"#utility.yul\":607:636   */\n      swap1\n      pop\n        /* \"#utility.yul\":645:678   */\n      tag_136\n        /* \"#utility.yul\":672:677   */\n      dup2\n        /* \"#utility.yul\":645:678   */\n      tag_78\n      jump\t// in\n    tag_136:\n        /* \"#utility.yul\":545:684   */\n      swap3\n      swap2\n      pop\n      pop\n      jump\t// out\n        /* \"#utility.yul\":690:1019   */\n    tag_11:\n        /* \"#utility.yul\":749:755   */\n      0x00\n        /* \"#utility.yul\":798:800   */\n      0x20\n        /* \"#utility.yul\":786:795   */\n      dup3\n        /* \"#utility.yul\":777:784   */\n      dup5\n        /* \"#utility.yul\":773:796   */\n      sub\n        /* \"#utility.yul\":769:801   */\n      slt\n        /* \"#utility.yul\":766:885   */\n      iszero\n      tag_138\n      jumpi\n        /* \"#utility.yul\":804:883   */\n      tag_139\n      tag_75\n      jump\t// in\n    tag_139:\n        /* \"#utility.yul\":766:885   */\n    tag_138:\n        /* \"#utility.yul\":924:925   */\n      0x00\n        /* \"#utility.yul\":949:1002   */\n      tag_140\n        /* \"#utility.yul\":994:1001   */\n      dup5\n        /* \"#utility.yul\":985:991   */\n      dup3\n        /* \"#utility.yul\":974:983   */\n      dup6\n        /* \"#utility.yul\":970:992   */\n      add\n        /* \"#utility.yul\":949:1002   */\n      tag_79\n      jump\t// in\n    tag_140:\n        /* \"#utility.yul\":939:1002   */\n      swap2\n      pop\n        /* \"#utility.yul\":895:1012   */\n      pop\n        /* \"#utility.yul\":690:1019   */\n      swap3\n      swap2\n      pop\n      pop\n      jump\t// out\n        /* \"#utility.yul\":1025:1124   */\n    tag_80:\n        /* \"#utility.yul\":1077:1083   */\n      0x00\n        /* \"#utility.yul\":1111:1116   */\n      dup2\n        /* \"#utility.yul\":1105:1117   */\n      mload\n        /* \"#utility.yul\":1095:1117   */\n      swap1\n      pop\n        /* \"#utility.yul\":1025:1124   */\n      swap2\n      swap1\n      pop\n      jump\t// out\n        /* \"#utility.yul\":1130:1299   */\n    tag_81:\n        /* \"#utility.yul\":1214:1225   */\n      0x00\n        /* \"#utility.yul\":1248:1254   */\n      dup3\n        /* \"#utility.yul\":1243:1246   */\n      dup3\n        /* \"#utility.yul\":1236:1255   */\n      mstore\n        /* \"#utility.yul\":1288:1292   */\n      0x20\n        /* \"#utility.yul\":1283:1286   */\n      dup3\n        /* \"#utility.yul\":1279:1293   */\n      add\n        /* \"#utility.yul\":1264:1293   */\n      swap1\n      pop\n        /* \"#utility.yul\":1130:1299   */\n      swap3\n      swap2\n      pop\n      pop\n      jump\t// out\n        /* \"#utility.yul\":1305:1444   */\n    tag_82:\n        /* \"#utility.yul\":1394:1400   */\n      dup3\n        /* \"#utility.yul\":1389:1392   */\n      dup2\n        /* \"#utility.yul\":1384:1387   */\n      dup4\n        /* \"#utility.yul\":1378:1401   */\n      mcopy\n        /* \"#utility.yul\":1435:1436   */\n      0x00\n        /* \"#utility.yul\":1426:1432   */\n      dup4\n        /* \"#utility.yul\":1421:1424   */\n      dup4\n        /* \"#utility.yul\":1417:1433   */\n      add\n        /* \"#utility.yul\":1410:1437   */\n      mstore\n        /* \"#utility.yul\":1305:1444   */\n      pop\n      pop\n      pop\n      jump\t// out\n        /* \"#utility.yul\":1450:1552   */\n    tag_83:\n        /* \"#utility.yul\":1491:1497   */\n      0x00\n        /* \"#utility.yul\":1542:1544   */\n      0x1f\n        /* \"#utility.yul\":1538:1545   */\n      not\n        /* \"#utility.yul\":1533:1535   */\n      0x1f\n        /* \"#utility.yul\":1526:1531   */\n      dup4\n        /* \"#utility.yul\":1522:1536   */\n      add\n        /* \"#utility.yul\":1518:1546   */\n      and\n        /* \"#utility.yul\":1508:1546   */\n      swap1\n      pop\n        /* \"#utility.yul\":1450:1552   */\n      swap2\n      swap1\n      pop\n      jump\t// out\n        /* \"#utility.yul\":1558:1935   */\n    tag_84:\n        /* \"#utility.yul\":1646:1649   */\n      0x00\n        /* \"#utility.yul\":1674:1713   */\n      tag_146\n        /* \"#utility.yul\":1707:1712   */\n      dup3\n        /* \"#utility.yul\":1674:1713   */\n      tag_80\n      jump\t// in\n    tag_146:\n        /* \"#utility.yul\":1729:1800   */\n      tag_147\n        /* \"#utility.yul\":1793:1799   */\n      dup2\n        /* \"#utility.yul\":1788:1791   */\n      dup6\n        /* \"#utility.yul\":1729:1800   */\n      tag_81\n      jump\t// in\n    tag_147:\n        /* \"#utility.yul\":1722:1800   */\n      swap4\n      pop\n        /* \"#utility.yul\":1809:1874   */\n      tag_148\n        /* \"#utility.yul\":1867:1873   */\n      dup2\n        /* \"#utility.yul\":1862:1865   */\n      dup6\n        /* \"#utility.yul\":1855:1859   */\n      0x20\n        /* \"#utility.yul\":1848:1853   */\n      dup7\n        /* \"#utility.yul\":1844:1860   */\n      add\n        /* \"#utility.yul\":1809:1874   */\n      tag_82\n      jump\t// in\n    tag_148:\n        /* \"#utility.yul\":1899:1928   */\n      tag_149\n        /* \"#utility.yul\":1921:1927   */\n      dup2\n        /* \"#utility.yul\":1899:1928   */\n      tag_83\n      jump\t// in\n    tag_149:\n        /* \"#utility.yul\":1894:1897   */\n      dup5\n        /* \"#utility.yul\":1890:1929   */\n      add\n        /* \"#utility.yul\":1883:1929   */\n      swap2\n      pop\n        /* \"#utility.yul\":1650:1935   */\n      pop\n        /* \"#utility.yul\":1558:1935   */\n      swap3\n      swap2\n      pop\n      pop\n      jump\t// out\n        /* \"#utility.yul\":1941:2067   */\n    tag_85:\n        /* \"#utility.yul\":1978:1985   */\n      0x00\n        /* \"#utility.yul\":2018:2060   */\n      0xffffffffffffffffffffffffffffffffffffffff\n        /* \"#utility.yul\":2011:2016   */\n      dup3\n        /* \"#utility.yul\":2007:2061   */\n      and\n        /* \"#utility.yul\":1996:2061   */\n      swap1\n      pop\n        /* \"#utility.yul\":1941:2067   */\n      swap2\n      swap1\n      pop\n      jump\t// out\n        /* \"#utility.yul\":2073:2169   */\n    tag_86:\n        /* \"#utility.yul\":2110:2117   */\n      0x00\n        /* \"#utility.yul\":2139:2163   */\n      tag_152\n        /* \"#utility.yul\":2157:2162   */\n      dup3\n        /* \"#utility.yul\":2139:2163   */\n      tag_85\n      jump\t// in\n    tag_152:\n        /* \"#utility.yul\":2128:2163   */\n      swap1\n      pop\n        /* \"#utility.yul\":2073:2169   */\n      swap2\n      swap1\n      pop\n      jump\t// out\n        /* \"#utility.yul\":2175:2293   */\n    tag_87:\n        /* \"#utility.yul\":2262:2286   */\n      tag_154\n        /* \"#utility.yul\":2280:2285   */\n      dup2\n        /* \"#utility.yul\":2262:2286   */\n      tag_86\n      jump\t// in\n    tag_154:\n        /* \"#utility.yul\":2257:2260   */\n      dup3\n        /* \"#utility.yul\":2250:2287   */\n      mstore\n        /* \"#utility.yul\":2175:2293   */\n      pop\n      pop\n      jump\t// out\n        /* \"#utility.yul\":2299:2417   */\n    tag_88:\n        /* \"#utility.yul\":2386:2410   */\n      tag_156\n        /* \"#utility.yul\":2404:2409   */\n      dup2\n        /* \"#utility.yul\":2386:2410   */\n      tag_77\n      jump\t// in\n    tag_156:\n        /* \"#utility.yul\":2381:2384   */\n      dup3\n        /* \"#utility.yul\":2374:2411   */\n      mstore\n        /* \"#utility.yul\":2299:2417   */\n      pop\n      pop\n      jump\t// out\n        /* \"#utility.yul\":2423:2513   */\n    tag_89:\n        /* \"#utility.yul\":2457:2464   */\n      0x00\n        /* \"#utility.yul\":2500:2505   */\n      dup2\n        /* \"#utility.yul\":2493:2506   */\n      iszero\n        /* \"#utility.yul\":2486:2507   */\n      iszero\n        /* \"#utility.yul\":2475:2507   */\n      swap1\n      pop\n        /* \"#utility.yul\":2423:2513   */\n      swap2\n      swap1\n      pop\n      jump\t// out\n        /* \"#utility.yul\":2519:2628   */\n    tag_90:\n        /* \"#utility.yul\":2600:2621   */\n      tag_159\n        /* \"#utility.yul\":2615:2620   */\n      dup2\n        /* \"#utility.yul\":2600:2621   */\n      tag_89\n      jump\t// in\n    tag_159:\n        /* \"#utility.yul\":2595:2598   */\n      dup3\n        /* \"#utility.yul\":2588:2622   */\n      mstore\n        /* \"#utility.yul\":2519:2628   */\n      pop\n      pop\n      jump\t// out\n        /* \"#utility.yul\":2634:3789   */\n    tag_14:\n        /* \"#utility.yul\":2951:2955   */\n      0x00\n        /* \"#utility.yul\":2989:2992   */\n      0x0100\n        /* \"#utility.yul\":2978:2987   */\n      dup3\n        /* \"#utility.yul\":2974:2993   */\n      add\n        /* \"#utility.yul\":2966:2993   */\n      swap1\n      pop\n        /* \"#utility.yul\":3039:3048   */\n      dup2\n        /* \"#utility.yul\":3033:3037   */\n      dup2\n        /* \"#utility.yul\":3029:3049   */\n      sub\n        /* \"#utility.yul\":3025:3026   */\n      0x00\n        /* \"#utility.yul\":3014:3023   */\n      dup4\n        /* \"#utility.yul\":3010:3027   */\n      add\n        /* \"#utility.yul\":3003:3050   */\n      mstore\n        /* \"#utility.yul\":3067:3145   */\n      tag_161\n        /* \"#utility.yul\":3140:3144   */\n      dup2\n        /* \"#utility.yul\":3131:3137   */\n      dup12\n        /* \"#utility.yul\":3067:3145   */\n      tag_84\n      jump\t// in\n    tag_161:\n        /* \"#utility.yul\":3059:3145   */\n      swap1\n      pop\n        /* \"#utility.yul\":3192:3201   */\n      dup2\n        /* \"#utility.yul\":3186:3190   */\n      dup2\n        /* \"#utility.yul\":3182:3202   */\n      sub\n        /* \"#utility.yul\":3177:3179   */\n      0x20\n        /* \"#utility.yul\":3166:3175   */\n      dup4\n        /* \"#utility.yul\":3162:3180   */\n      add\n        /* \"#utility.yul\":3155:3203   */\n      mstore\n        /* \"#utility.yul\":3220:3298   */\n      tag_162\n        /* \"#utility.yul\":3293:3297   */\n      dup2\n        /* \"#utility.yul\":3284:3290   */\n      dup11\n        /* \"#utility.yul\":3220:3298   */\n      tag_84\n      jump\t// in\n    tag_162:\n        /* \"#utility.yul\":3212:3298   */\n      swap1\n      pop\n        /* \"#utility.yul\":3308:3380   */\n      tag_163\n        /* \"#utility.yul\":3376:3378   */\n      0x40\n        /* \"#utility.yul\":3365:3374   */\n      dup4\n        /* \"#utility.yul\":3361:3379   */\n      add\n        /* \"#utility.yul\":3352:3358   */\n      dup10\n        /* \"#utility.yul\":3308:3380   */\n      tag_87\n      jump\t// in\n    tag_163:\n        /* \"#utility.yul\":3390:3462   */\n      tag_164\n        /* \"#utility.yul\":3458:3460   */\n      0x60\n        /* \"#utility.yul\":3447:3456   */\n      dup4\n        /* \"#utility.yul\":3443:3461   */\n      add\n        /* \"#utility.yul\":3434:3440   */\n      dup9\n        /* \"#utility.yul\":3390:3462   */\n      tag_88\n      jump\t// in\n    tag_164:\n        /* \"#utility.yul\":3472:3545   */\n      tag_165\n        /* \"#utility.yul\":3540:3543   */\n      0x80\n        /* \"#utility.yul\":3529:3538   */\n      dup4\n        /* \"#utility.yul\":3525:3544   */\n      add\n        /* \"#utility.yul\":3516:3522   */\n      dup8\n        /* \"#utility.yul\":3472:3545   */\n      tag_88\n      jump\t// in\n    tag_165:\n        /* \"#utility.yul\":3555:3628   */\n      tag_166\n        /* \"#utility.yul\":3623:3626   */\n      0xa0\n        /* \"#utility.yul\":3612:3621   */\n      dup4\n        /* \"#utility.yul\":3608:3627   */\n      add\n        /* \"#utility.yul\":3599:3605   */\n      dup7\n        /* \"#utility.yul\":3555:3628   */\n      tag_88\n      jump\t// in\n    tag_166:\n        /* \"#utility.yul\":3638:3705   */\n      tag_167\n        /* \"#utility.yul\":3700:3703   */\n      0xc0\n        /* \"#utility.yul\":3689:3698   */\n      dup4\n        /* \"#utility.yul\":3685:3704   */\n      add\n        /* \"#utility.yul\":3676:3682   */\n      dup6\n        /* \"#utility.yul\":3638:3705   */\n      tag_90\n      jump\t// in\n    tag_167:\n        /* \"#utility.yul\":3715:3782   */\n      tag_168\n        /* \"#utility.yul\":3777:3780   */\n      0xe0\n        /* \"#utility.yul\":3766:3775   */\n      dup4\n        /* \"#utility.yul\":3762:3781   */\n      add\n        /* \"#utility.yul\":3753:3759   */\n      dup5\n        /* \"#utility.yul\":3715:3782   */\n      tag_90\n      jump\t// in\n    tag_168:\n        /* \"#utility.yul\":2634:3789   */\n      swap10\n      swap9\n      pop\n      pop\n      pop\n      pop\n      pop\n      pop\n      pop\n      pop\n      pop\n      jump\t// out\n        /* \"#utility.yul\":3795:3917   */\n    tag_91:\n        /* \"#utility.yul\":3868:3892   */\n      tag_170\n        /* \"#utility.yul\":3886:3891   */\n      dup2\n        /* \"#utility.yul\":3868:3892   */\n      tag_86\n      jump\t// in\n    tag_170:\n        /* \"#utility.yul\":3861:3866   */\n      dup2\n        /* \"#utility.yul\":3858:3893   */\n      eq\n        /* \"#utility.yul\":3848:3911   */\n      tag_171\n      jumpi\n        /* \"#utility.yul\":3907:3908   */\n      0x00\n        /* \"#utility.yul\":3904:3905   */\n      dup1\n        /* \"#utility.yul\":3897:3909   */\n      revert\n        /* \"#utility.yul\":3848:3911   */\n    tag_171:\n        /* \"#utility.yul\":3795:3917   */\n      pop\n      jump\t// out\n        /* \"#utility.yul\":3923:4062   */\n    tag_92:\n        /* \"#utility.yul\":3969:3974   */\n      0x00\n        /* \"#utility.yul\":4007:4013   */\n      dup2\n        /* \"#utility.yul\":3994:4014   */\n      calldataload\n        /* \"#utility.yul\":3985:4014   */\n      swap1\n      pop\n        /* \"#utility.yul\":4023:4056   */\n      tag_173\n        /* \"#utility.yul\":4050:4055   */\n      dup2\n        /* \"#utility.yul\":4023:4056   */\n      tag_91\n      jump\t// in\n    tag_173:\n        /* \"#utility.yul\":3923:4062   */\n      swap3\n      swap2\n      pop\n      pop\n      jump\t// out\n        /* \"#utility.yul\":4068:4542   */\n    tag_17:\n        /* \"#utility.yul\":4136:4142   */\n      0x00\n        /* \"#utility.yul\":4144:4150   */\n      dup1\n        /* \"#utility.yul\":4193:4195   */\n      0x40\n        /* \"#utility.yul\":4181:4190   */\n      dup4\n        /* \"#utility.yul\":4172:4179   */\n      dup6\n        /* \"#utility.yul\":4168:4191   */\n      sub\n        /* \"#utility.yul\":4164:4196   */\n      slt\n        /* \"#utility.yul\":4161:4280   */\n      iszero\n      tag_175\n      jumpi\n        /* \"#utility.yul\":4199:4278   */\n      tag_176\n      tag_75\n      jump\t// in\n    tag_176:\n        /* \"#utility.yul\":4161:4280   */\n    tag_175:\n        /* \"#utility.yul\":4319:4320   */\n      0x00\n        /* \"#utility.yul\":4344:4397   */\n      tag_177\n        /* \"#utility.yul\":4389:4396   */\n      dup6\n        /* \"#utility.yul\":4380:4386   */\n      dup3\n        /* \"#utility.yul\":4369:4378   */\n      dup7\n        /* \"#utility.yul\":4365:4387   */\n      add\n        /* \"#utility.yul\":4344:4397   */\n      tag_79\n      jump\t// in\n    tag_177:\n        /* \"#utility.yul\":4334:4397   */\n      swap3\n      pop\n        /* \"#utility.yul\":4290:4407   */\n      pop\n        /* \"#utility.yul\":4446:4448   */\n      0x20\n        /* \"#utility.yul\":4472:4525   */\n      tag_178\n        /* \"#utility.yul\":4517:4524   */\n      dup6\n        /* \"#utility.yul\":4508:4514   */\n      dup3\n        /* \"#utility.yul\":4497:4506   */\n      dup7\n        /* \"#utility.yul\":4493:4515   */\n      add\n        /* \"#utility.yul\":4472:4525   */\n      tag_92\n      jump\t// in\n    tag_178:\n        /* \"#utility.yul\":4462:4525   */\n      swap2\n      pop\n        /* \"#utility.yul\":4417:4535   */\n      pop\n        /* \"#utility.yul\":4068:4542   */\n      swap3\n      pop\n      swap3\n      swap1\n      pop\n      jump\t// out\n        /* \"#utility.yul\":4548:4758   */\n    tag_20:\n        /* \"#utility.yul\":4635:4639   */\n      0x00\n        /* \"#utility.yul\":4673:4675   */\n      0x20\n        /* \"#utility.yul\":4662:4671   */\n      dup3\n        /* \"#utility.yul\":4658:4676   */\n      add\n        /* \"#utility.yul\":4650:4676   */\n      swap1\n      pop\n        /* \"#utility.yul\":4686:4751   */\n      tag_180\n        /* \"#utility.yul\":4748:4749   */\n      0x00\n        /* \"#utility.yul\":4737:4746   */\n      dup4\n        /* \"#utility.yul\":4733:4750   */\n      add\n        /* \"#utility.yul\":4724:4730   */\n      dup5\n        /* \"#utility.yul\":4686:4751   */\n      tag_90\n      jump\t// in\n    tag_180:\n        /* \"#utility.yul\":4548:4758   */\n      swap3\n      swap2\n      pop\n      pop\n      jump\t// out\n        /* \"#utility.yul\":4764:4881   */\n    tag_93:\n        /* \"#utility.yul\":4873:4874   */\n      0x00\n        /* \"#utility.yul\":4870:4871   */\n      dup1\n        /* \"#utility.yul\":4863:4875   */\n      revert\n        /* \"#utility.yul\":4887:5004   */\n    tag_94:\n        /* \"#utility.yul\":4996:4997   */\n      0x00\n        /* \"#utility.yul\":4993:4994   */\n      dup1\n        /* \"#utility.yul\":4986:4998   */\n      revert\n        /* \"#utility.yul\":5010:5190   */\n    tag_95:\n        /* \"#utility.yul\":5058:5135   */\n      0x4e487b7100000000000000000000000000000000000000000000000000000000\n        /* \"#utility.yul\":5055:5056   */\n      0x00\n        /* \"#utility.yul\":5048:5136   */\n      mstore\n        /* \"#utility.yul\":5155:5159   */\n      0x41\n        /* \"#utility.yul\":5152:5153   */\n      0x04\n        /* \"#utility.yul\":5145:5160   */\n      mstore\n        /* \"#utility.yul\":5179:5183   */\n      0x24\n        /* \"#utility.yul\":5176:5177   */\n      0x00\n        /* \"#utility.yul\":5169:5184   */\n      revert\n        /* \"#utility.yul\":5196:5477   */\n    tag_96:\n        /* \"#utility.yul\":5279:5306   */\n      tag_185\n        /* \"#utility.yul\":5301:5305   */\n      dup3\n        /* \"#utility.yul\":5279:5306   */\n      tag_83\n      jump\t// in\n    tag_185:\n        /* \"#utility.yul\":5271:5277   */\n      dup2\n        /* \"#utility.yul\":5267:5307   */\n      add\n        /* \"#utility.yul\":5409:5415   */\n      dup2\n        /* \"#utility.yul\":5397:5407   */\n      dup2\n        /* \"#utility.yul\":5394:5416   */\n      lt\n        /* \"#utility.yul\":5373:5391   */\n      0xffffffffffffffff\n        /* \"#utility.yul\":5361:5371   */\n      dup3\n        /* \"#utility.yul\":5358:5392   */\n      gt\n        /* \"#utility.yul\":5355:5417   */\n      or\n        /* \"#utility.yul\":5352:5440   */\n      iszero\n      tag_186\n      jumpi\n        /* \"#utility.yul\":5420:5438   */\n      tag_187\n      tag_95\n      jump\t// in\n    tag_187:\n        /* \"#utility.yul\":5352:5440   */\n    tag_186:\n        /* \"#utility.yul\":5460:5470   */\n      dup1\n        /* \"#utility.yul\":5456:5458   */\n      0x40\n        /* \"#utility.yul\":5449:5471   */\n      mstore\n        /* \"#utility.yul\":5239:5477   */\n      pop\n        /* \"#utility.yul\":5196:5477   */\n      pop\n      pop\n      jump\t// out\n        /* \"#utility.yul\":5483:5612   */\n    tag_97:\n        /* \"#utility.yul\":5517:5523   */\n      0x00\n        /* \"#utility.yul\":5544:5564   */\n      tag_189\n      tag_74\n      jump\t// in\n    tag_189:\n        /* \"#utility.yul\":5534:5564   */\n      swap1\n      pop\n        /* \"#utility.yul\":5573:5606   */\n      tag_190\n        /* \"#utility.yul\":5601:5605   */\n      dup3\n        /* \"#utility.yul\":5593:5599   */\n      dup3\n        /* \"#utility.yul\":5573:5606   */\n      tag_96\n      jump\t// in\n    tag_190:\n        /* \"#utility.yul\":5483:5612   */\n      swap2\n      swap1\n      pop\n      jump\t// out\n        /* \"#utility.yul\":5618:5926   */\n    tag_98:\n        /* \"#utility.yul\":5680:5684   */\n      0x00\n        /* \"#utility.yul\":5770:5788   */\n      0xffffffffffffffff\n        /* \"#utility.yul\":5762:5768   */\n      dup3\n        /* \"#utility.yul\":5759:5789   */\n      gt\n        /* \"#utility.yul\":5756:5812   */\n      iszero\n      tag_192\n      jumpi\n        /* \"#utility.yul\":5792:5810   */\n      tag_193\n      tag_95\n      jump\t// in\n    tag_193:\n        /* \"#utility.yul\":5756:5812   */\n    tag_192:\n        /* \"#utility.yul\":5830:5859   */\n      tag_194\n        /* \"#utility.yul\":5852:5858   */\n      dup3\n        /* \"#utility.yul\":5830:5859   */\n      tag_83\n      jump\t// in\n    tag_194:\n        /* \"#utility.yul\":5822:5859   */\n      swap1\n      pop\n        /* \"#utility.yul\":5914:5918   */\n      0x20\n        /* \"#utility.yul\":5908:5912   */\n      dup2\n        /* \"#utility.yul\":5904:5919   */\n      add\n        /* \"#utility.yul\":5896:5919   */\n      swap1\n      pop\n        /* \"#utility.yul\":5618:5926   */\n      swap2\n      swap1\n      pop\n      jump\t// out\n        /* \"#utility.yul\":5932:6080   */\n    tag_99:\n        /* \"#utility.yul\":6030:6036   */\n      dup3\n        /* \"#utility.yul\":6025:6028   */\n      dup2\n        /* \"#utility.yul\":6020:6023   */\n      dup4\n        /* \"#utility.yul\":6007:6037   */\n      calldatacopy\n        /* \"#utility.yul\":6071:6072   */\n      0x00\n        /* \"#utility.yul\":6062:6068   */\n      dup4\n        /* \"#utility.yul\":6057:6060   */\n      dup4\n        /* \"#utility.yul\":6053:6069   */\n      add\n        /* \"#utility.yul\":6046:6073   */\n      mstore\n        /* \"#utility.yul\":5932:6080   */\n      pop\n      pop\n      pop\n      jump\t// out\n        /* \"#utility.yul\":6086:6511   */\n    tag_100:\n        /* \"#utility.yul\":6164:6169   */\n      0x00\n        /* \"#utility.yul\":6189:6255   */\n      tag_197\n        /* \"#utility.yul\":6205:6254   */\n      tag_198\n        /* \"#utility.yul\":6247:6253   */\n      dup5\n        /* \"#utility.yul\":6205:6254   */\n      tag_98\n      jump\t// in\n    tag_198:\n        /* \"#utility.yul\":6189:6255   */\n      tag_97\n      jump\t// in\n    tag_197:\n        /* \"#utility.yul\":6180:6255   */\n      swap1\n      pop\n        /* \"#utility.yul\":6278:6284   */\n      dup3\n        /* \"#utility.yul\":6271:6276   */\n      dup2\n        /* \"#utility.yul\":6264:6285   */\n      mstore\n        /* \"#utility.yul\":6316:6320   */\n      0x20\n        /* \"#utility.yul\":6309:6314   */\n      dup2\n        /* \"#utility.yul\":6305:6321   */\n      add\n        /* \"#utility.yul\":6354:6357   */\n      dup5\n        /* \"#utility.yul\":6345:6351   */\n      dup5\n        /* \"#utility.yul\":6340:6343   */\n      dup5\n        /* \"#utility.yul\":6336:6352   */\n      add\n        /* \"#utility.yul\":6333:6358   */\n      gt\n        /* \"#utility.yul\":6330:6442   */\n      iszero\n      tag_199\n      jumpi\n        /* \"#utility.yul\":6361:6440   */\n      tag_200\n      tag_94\n      jump\t// in\n    tag_200:\n        /* \"#utility.yul\":6330:6442   */\n    tag_199:\n        /* \"#utility.yul\":6451:6505   */\n      tag_201\n        /* \"#utility.yul\":6498:6504   */\n      dup5\n        /* \"#utility.yul\":6493:6496   */\n      dup3\n        /* \"#utility.yul\":6488:6491   */\n      dup6\n        /* \"#utility.yul\":6451:6505   */\n      tag_99\n      jump\t// in\n    tag_201:\n        /* \"#utility.yul\":6170:6511   */\n      pop\n        /* \"#utility.yul\":6086:6511   */\n      swap4\n      swap3\n      pop\n      pop\n      pop\n      jump\t// out\n        /* \"#utility.yul\":6531:6871   */\n    tag_101:\n        /* \"#utility.yul\":6587:6592   */\n      0x00\n        /* \"#utility.yul\":6636:6639   */\n      dup3\n        /* \"#utility.yul\":6629:6633   */\n      0x1f\n        /* \"#utility.yul\":6621:6627   */\n      dup4\n        /* \"#utility.yul\":6617:6634   */\n      add\n        /* \"#utility.yul\":6613:6640   */\n      slt\n        /* \"#utility.yul\":6603:6725   */\n      tag_203\n      jumpi\n        /* \"#utility.yul\":6644:6723   */\n      tag_204\n      tag_93\n      jump\t// in\n    tag_204:\n        /* \"#utility.yul\":6603:6725   */\n    tag_203:\n        /* \"#utility.yul\":6761:6767   */\n      dup2\n        /* \"#utility.yul\":6748:6768   */\n      calldataload\n        /* \"#utility.yul\":6786:6865   */\n      tag_205\n        /* \"#utility.yul\":6861:6864   */\n      dup5\n        /* \"#utility.yul\":6853:6859   */\n      dup3\n        /* \"#utility.yul\":6846:6850   */\n      0x20\n        /* \"#utility.yul\":6838:6844   */\n      dup7\n        /* \"#utility.yul\":6834:6851   */\n      add\n        /* \"#utility.yul\":6786:6865   */\n      tag_100\n      jump\t// in\n    tag_205:\n        /* \"#utility.yul\":6777:6865   */\n      swap2\n      pop\n        /* \"#utility.yul\":6593:6871   */\n      pop\n        /* \"#utility.yul\":6531:6871   */\n      swap3\n      swap2\n      pop\n      pop\n      jump\t// out\n        /* \"#utility.yul\":6877:7711   */\n    tag_26:\n        /* \"#utility.yul\":6965:6971   */\n      0x00\n        /* \"#utility.yul\":6973:6979   */\n      dup1\n        /* \"#utility.yul\":7022:7024   */\n      0x40\n        /* \"#utility.yul\":7010:7019   */\n      dup4\n        /* \"#utility.yul\":7001:7008   */\n      dup6\n        /* \"#utility.yul\":6997:7020   */\n      sub\n        /* \"#utility.yul\":6993:7025   */\n      slt\n        /* \"#utility.yul\":6990:7109   */\n      iszero\n      tag_207\n      jumpi\n        /* \"#utility.yul\":7028:7107   */\n      tag_208\n      tag_75\n      jump\t// in\n    tag_208:\n        /* \"#utility.yul\":6990:7109   */\n    tag_207:\n        /* \"#utility.yul\":7176:7177   */\n      0x00\n        /* \"#utility.yul\":7165:7174   */\n      dup4\n        /* \"#utility.yul\":7161:7178   */\n      add\n        /* \"#utility.yul\":7148:7179   */\n      calldataload\n        /* \"#utility.yul\":7206:7224   */\n      0xffffffffffffffff\n        /* \"#utility.yul\":7198:7204   */\n      dup2\n        /* \"#utility.yul\":7195:7225   */\n      gt\n        /* \"#utility.yul\":7192:7309   */\n      iszero\n      tag_209\n      jumpi\n        /* \"#utility.yul\":7228:7307   */\n      tag_210\n      tag_76\n      jump\t// in\n    tag_210:\n        /* \"#utility.yul\":7192:7309   */\n    tag_209:\n        /* \"#utility.yul\":7333:7396   */\n      tag_211\n        /* \"#utility.yul\":7388:7395   */\n      dup6\n        /* \"#utility.yul\":7379:7385   */\n      dup3\n        /* \"#utility.yul\":7368:7377   */\n      dup7\n        /* \"#utility.yul\":7364:7386   */\n      add\n        /* \"#utility.yul\":7333:7396   */\n      tag_101\n      jump\t// in\n    tag_211:\n        /* \"#utility.yul\":7323:7396   */\n      swap3\n      pop\n        /* \"#utility.yul\":7119:7406   */\n      pop\n        /* \"#utility.yul\":7473:7475   */\n      0x20\n        /* \"#utility.yul\":7462:7471   */\n      dup4\n        /* \"#utility.yul\":7458:7476   */\n      add\n        /* \"#utility.yul\":7445:7477   */\n      calldataload\n        /* \"#utility.yul\":7504:7522   */\n      0xffffffffffffffff\n        /* \"#utility.yul\":7496:7502   */\n      dup2\n        /* \"#utility.yul\":7493:7523   */\n      gt\n        /* \"#utility.yul\":7490:7607   */\n      iszero\n      tag_212\n      jumpi\n        /* \"#utility.yul\":7526:7605   */\n      tag_213\n      tag_76\n      jump\t// in\n    tag_213:\n        /* \"#utility.yul\":7490:7607   */\n    tag_212:\n        /* \"#utility.yul\":7631:7694   */\n      tag_214\n        /* \"#utility.yul\":7686:7693   */\n      dup6\n        /* \"#utility.yul\":7677:7683   */\n      dup3\n        /* \"#utility.yul\":7666:7675   */\n      dup7\n        /* \"#utility.yul\":7662:7684   */\n      add\n        /* \"#utility.yul\":7631:7694   */\n      tag_101\n      jump\t// in\n    tag_214:\n        /* \"#utility.yul\":7621:7694   */\n      swap2\n      pop\n        /* \"#utility.yul\":7416:7704   */\n      pop\n        /* \"#utility.yul\":6877:7711   */\n      swap3\n      pop\n      swap3\n      swap1\n      pop\n      jump\t// out\n        /* \"#utility.yul\":7717:7833   */\n    tag_102:\n        /* \"#utility.yul\":7787:7808   */\n      tag_216\n        /* \"#utility.yul\":7802:7807   */\n      dup2\n        /* \"#utility.yul\":7787:7808   */\n      tag_89\n      jump\t// in\n    tag_216:\n        /* \"#utility.yul\":7780:7785   */\n      dup2\n        /* \"#utility.yul\":7777:7809   */\n      eq\n        /* \"#utility.yul\":7767:7827   */\n      tag_217\n      jumpi\n        /* \"#utility.yul\":7823:7824   */\n      0x00\n        /* \"#utility.yul\":7820:7821   */\n      dup1\n        /* \"#utility.yul\":7813:7825   */\n      revert\n        /* \"#utility.yul\":7767:7827   */\n    tag_217:\n        /* \"#utility.yul\":7717:7833   */\n      pop\n      jump\t// out\n        /* \"#utility.yul\":7839:7972   */\n    tag_103:\n        /* \"#utility.yul\":7882:7887   */\n      0x00\n        /* \"#utility.yul\":7920:7926   */\n      dup2\n        /* \"#utility.yul\":7907:7927   */\n      calldataload\n        /* \"#utility.yul\":7898:7927   */\n      swap1\n      pop\n        /* \"#utility.yul\":7936:7966   */\n      tag_219\n        /* \"#utility.yul\":7960:7965   */\n      dup2\n        /* \"#utility.yul\":7936:7966   */\n      tag_102\n      jump\t// in\n    tag_219:\n        /* \"#utility.yul\":7839:7972   */\n      swap3\n      swap2\n      pop\n      pop\n      jump\t// out\n        /* \"#utility.yul\":7978:8446   */\n    tag_30:\n        /* \"#utility.yul\":8043:8049   */\n      0x00\n        /* \"#utility.yul\":8051:8057   */\n      dup1\n        /* \"#utility.yul\":8100:8102   */\n      0x40\n        /* \"#utility.yul\":8088:8097   */\n      dup4\n        /* \"#utility.yul\":8079:8086   */\n      dup6\n        /* \"#utility.yul\":8075:8098   */\n      sub\n        /* \"#utility.yul\":8071:8103   */\n      slt\n        /* \"#utility.yul\":8068:8187   */\n      iszero\n      tag_221\n      jumpi\n        /* \"#utility.yul\":8106:8185   */\n      tag_222\n      tag_75\n      jump\t// in\n    tag_222:\n        /* \"#utility.yul\":8068:8187   */\n    tag_221:\n        /* \"#utility.yul\":8226:8227   */\n      0x00\n        /* \"#utility.yul\":8251:8304   */\n      tag_223\n        /* \"#utility.yul\":8296:8303   */\n      dup6\n        /* \"#utility.yul\":8287:8293   */\n      dup3\n        /* \"#utility.yul\":8276:8285   */\n      dup7\n        /* \"#utility.yul\":8272:8294   */\n      add\n        /* \"#utility.yul\":8251:8304   */\n      tag_79\n      jump\t// in\n    tag_223:\n        /* \"#utility.yul\":8241:8304   */\n      swap3\n      pop\n        /* \"#utility.yul\":8197:8314   */\n      pop\n        /* \"#utility.yul\":8353:8355   */\n      0x20\n        /* \"#utility.yul\":8379:8429   */\n      tag_224\n        /* \"#utility.yul\":8421:8428   */\n      dup6\n        /* \"#utility.yul\":8412:8418   */\n      dup3\n        /* \"#utility.yul\":8401:8410   */\n      dup7\n        /* \"#utility.yul\":8397:8419   */\n      add\n        /* \"#utility.yul\":8379:8429   */\n      tag_103\n      jump\t// in\n    tag_224:\n        /* \"#utility.yul\":8369:8429   */\n      swap2\n      pop\n        /* \"#utility.yul\":8324:8439   */\n      pop\n        /* \"#utility.yul\":7978:8446   */\n      swap3\n      pop\n      swap3\n      swap1\n      pop\n      jump\t// out\n        /* \"#utility.yul\":8452:8674   */\n    tag_35:\n        /* \"#utility.yul\":8545:8549   */\n      0x00\n        /* \"#utility.yul\":8583:8585   */\n      0x20\n        /* \"#utility.yul\":8572:8581   */\n      dup3\n        /* \"#utility.yul\":8568:8586   */\n      add\n        /* \"#utility.yul\":8560:8586   */\n      swap1\n      pop\n        /* \"#utility.yul\":8596:8667   */\n      tag_226\n        /* \"#utility.yul\":8664:8665   */\n      0x00\n        /* \"#utility.yul\":8653:8662   */\n      dup4\n        /* \"#utility.yul\":8649:8666   */\n      add\n        /* \"#utility.yul\":8640:8646   */\n      dup5\n        /* \"#utility.yul\":8596:8667   */\n      tag_88\n      jump\t// in\n    tag_226:\n        /* \"#utility.yul\":8452:8674   */\n      swap3\n      swap2\n      pop\n      pop\n      jump\t// out\n        /* \"#utility.yul\":8680:8860   */\n    tag_104:\n        /* \"#utility.yul\":8728:8805   */\n      0x4e487b7100000000000000000000000000000000000000000000000000000000\n        /* \"#utility.yul\":8725:8726   */\n      0x00\n        /* \"#utility.yul\":8718:8806   */\n      mstore\n        /* \"#utility.yul\":8825:8829   */\n      0x22\n        /* \"#utility.yul\":8822:8823   */\n      0x04\n        /* \"#utility.yul\":8815:8830   */\n      mstore\n        /* \"#utility.yul\":8849:8853   */\n      0x24\n        /* \"#utility.yul\":8846:8847   */\n      0x00\n        /* \"#utility.yul\":8839:8854   */\n      revert\n        /* \"#utility.yul\":8866:9186   */\n    tag_37:\n        /* \"#utility.yul\":8910:8916   */\n      0x00\n        /* \"#utility.yul\":8947:8948   */\n      0x02\n        /* \"#utility.yul\":8941:8945   */\n      dup3\n        /* \"#utility.yul\":8937:8949   */\n      div\n        /* \"#utility.yul\":8927:8949   */\n      swap1\n      pop\n        /* \"#utility.yul\":8994:8995   */\n      0x01\n        /* \"#utility.yul\":8988:8992   */\n      dup3\n        /* \"#utility.yul\":8984:8996   */\n      and\n        /* \"#utility.yul\":9015:9033   */\n      dup1\n        /* \"#utility.yul\":9005:9086   */\n      tag_229\n      jumpi\n        /* \"#utility.yul\":9071:9075   */\n      0x7f\n        /* \"#utility.yul\":9063:9069   */\n      dup3\n        /* \"#utility.yul\":9059:9076   */\n      and\n        /* \"#utility.yul\":9049:9076   */\n      swap2\n      pop\n        /* \"#utility.yul\":9005:9086   */\n    tag_229:\n        /* \"#utility.yul\":9133:9135   */\n      0x20\n        /* \"#utility.yul\":9125:9131   */\n      dup3\n        /* \"#utility.yul\":9122:9136   */\n      lt\n        /* \"#utility.yul\":9102:9120   */\n      dup2\n        /* \"#utility.yul\":9099:9137   */\n      sub\n        /* \"#utility.yul\":9096:9180   */\n      tag_230\n      jumpi\n        /* \"#utility.yul\":9152:9170   */\n      tag_231\n      tag_104\n      jump\t// in\n    tag_231:\n        /* \"#utility.yul\":9096:9180   */\n    tag_230:\n        /* \"#utility.yul\":8917:9186   */\n      pop\n        /* \"#utility.yul\":8866:9186   */\n      swap2\n      swap1\n      pop\n      jump\t// out\n        /* \"#utility.yul\":9192:9372   */\n    tag_105:\n        /* \"#utility.yul\":9240:9317   */\n      0x4e487b7100000000000000000000000000000000000000000000000000000000\n        /* \"#utility.yul\":9237:9238   */\n      0x00\n        /* \"#utility.yul\":9230:9318   */\n      mstore\n        /* \"#utility.yul\":9337:9341   */\n      0x11\n        /* \"#utility.yul\":9334:9335   */\n      0x04\n        /* \"#utility.yul\":9327:9342   */\n      mstore\n        /* \"#utility.yul\":9361:9365   */\n      0x24\n        /* \"#utility.yul\":9358:9359   */\n      0x00\n        /* \"#utility.yul\":9351:9366   */\n      revert\n        /* \"#utility.yul\":9378:9572   */\n    tag_50:\n        /* \"#utility.yul\":9418:9422   */\n      0x00\n        /* \"#utility.yul\":9438:9458   */\n      tag_234\n        /* \"#utility.yul\":9456:9457   */\n      dup3\n        /* \"#utility.yul\":9438:9458   */\n      tag_77\n      jump\t// in\n    tag_234:\n        /* \"#utility.yul\":9433:9458   */\n      swap2\n      pop\n        /* \"#utility.yul\":9472:9492   */\n      tag_235\n        /* \"#utility.yul\":9490:9491   */\n      dup4\n        /* \"#utility.yul\":9472:9492   */\n      tag_77\n      jump\t// in\n    tag_235:\n        /* \"#utility.yul\":9467:9492   */\n      swap3\n      pop\n        /* \"#utility.yul\":9516:9517   */\n      dup3\n        /* \"#utility.yul\":9513:9514   */\n      dup3\n        /* \"#utility.yul\":9509:9518   */\n      sub\n        /* \"#utility.yul\":9501:9518   */\n      swap1\n      pop\n        /* \"#utility.yul\":9540:9541   */\n      dup2\n        /* \"#utility.yul\":9534:9538   */\n      dup2\n        /* \"#utility.yul\":9531:9542   */\n      gt\n        /* \"#utility.yul\":9528:9565   */\n      iszero\n      tag_236\n      jumpi\n        /* \"#utility.yul\":9545:9563   */\n      tag_237\n      tag_105\n      jump\t// in\n    tag_237:\n        /* \"#utility.yul\":9528:9565   */\n    tag_236:\n        /* \"#utility.yul\":9378:9572   */\n      swap3\n      swap2\n      pop\n      pop\n      jump\t// out\n        /* \"#utility.yul\":9578:9803   */\n    tag_106:\n        /* \"#utility.yul\":9718:9752   */\n      0x566f746520776173206e6f742066696e697368206f7220616c72656164792066\n        /* \"#utility.yul\":9714:9715   */\n      0x00\n        /* \"#utility.yul\":9706:9712   */\n      dup3\n        /* \"#utility.yul\":9702:9716   */\n      add\n        /* \"#utility.yul\":9695:9753   */\n      mstore\n        /* \"#utility.yul\":9787:9795   */\n      0x696e6973682e0000000000000000000000000000000000000000000000000000\n        /* \"#utility.yul\":9782:9784   */\n      0x20\n        /* \"#utility.yul\":9774:9780   */\n      dup3\n        /* \"#utility.yul\":9770:9785   */\n      add\n        /* \"#utility.yul\":9763:9796   */\n      mstore\n        /* \"#utility.yul\":9578:9803   */\n      pop\n      jump\t// out\n        /* \"#utility.yul\":9809:10175   */\n    tag_107:\n        /* \"#utility.yul\":9951:9954   */\n      0x00\n        /* \"#utility.yul\":9972:10039   */\n      tag_240\n        /* \"#utility.yul\":10036:10038   */\n      0x26\n        /* \"#utility.yul\":10031:10034   */\n      dup4\n        /* \"#utility.yul\":9972:10039   */\n      tag_81\n      jump\t// in\n    tag_240:\n        /* \"#utility.yul\":9965:10039   */\n      swap2\n      pop\n        /* \"#utility.yul\":10048:10141   */\n      tag_241\n        /* \"#utility.yul\":10137:10140   */\n      dup3\n        /* \"#utility.yul\":10048:10141   */\n      tag_106\n      jump\t// in\n    tag_241:\n        /* \"#utility.yul\":10166:10168   */\n      0x40\n        /* \"#utility.yul\":10161:10164   */\n      dup3\n        /* \"#utility.yul\":10157:10169   */\n      add\n        /* \"#utility.yul\":10150:10169   */\n      swap1\n      pop\n        /* \"#utility.yul\":9809:10175   */\n      swap2\n      swap1\n      pop\n      jump\t// out\n        /* \"#utility.yul\":10181:10600   */\n    tag_53:\n        /* \"#utility.yul\":10347:10351   */\n      0x00\n        /* \"#utility.yul\":10385:10387   */\n      0x20\n        /* \"#utility.yul\":10374:10383   */\n      dup3\n        /* \"#utility.yul\":10370:10388   */\n      add\n        /* \"#utility.yul\":10362:10388   */\n      swap1\n      pop\n        /* \"#utility.yul\":10434:10443   */\n      dup2\n        /* \"#utility.yul\":10428:10432   */\n      dup2\n        /* \"#utility.yul\":10424:10444   */\n      sub\n        /* \"#utility.yul\":10420:10421   */\n      0x00\n        /* \"#utility.yul\":10409:10418   */\n      dup4\n        /* \"#utility.yul\":10405:10422   */\n      add\n        /* \"#utility.yul\":10398:10445   */\n      mstore\n        /* \"#utility.yul\":10462:10593   */\n      tag_243\n        /* \"#utility.yul\":10588:10592   */\n      dup2\n        /* \"#utility.yul\":10462:10593   */\n      tag_107\n      jump\t// in\n    tag_243:\n        /* \"#utility.yul\":10454:10593   */\n      swap1\n      pop\n        /* \"#utility.yul\":10181:10600   */\n      swap2\n      swap1\n      pop\n      jump\t// out\n        /* \"#utility.yul\":10606:10720   */\n    tag_108:\n      pop\n      jump\t// out\n        /* \"#utility.yul\":10726:11090   */\n    tag_109:\n        /* \"#utility.yul\":10868:10871   */\n      0x00\n        /* \"#utility.yul\":10889:10955   */\n      tag_246\n        /* \"#utility.yul\":10953:10954   */\n      0x00\n        /* \"#utility.yul\":10948:10951   */\n      dup4\n        /* \"#utility.yul\":10889:10955   */\n      tag_81\n      jump\t// in\n    tag_246:\n        /* \"#utility.yul\":10882:10955   */\n      swap2\n      pop\n        /* \"#utility.yul\":10964:11057   */\n      tag_247\n        /* \"#utility.yul\":11053:11056   */\n      dup3\n        /* \"#utility.yul\":10964:11057   */\n      tag_108\n      jump\t// in\n    tag_247:\n        /* \"#utility.yul\":11082:11083   */\n      0x00\n        /* \"#utility.yul\":11077:11080   */\n      dup3\n        /* \"#utility.yul\":11073:11084   */\n      add\n        /* \"#utility.yul\":11066:11084   */\n      swap1\n      pop\n        /* \"#utility.yul\":10726:11090   */\n      swap2\n      swap1\n      pop\n      jump\t// out\n        /* \"#utility.yul\":11096:11515   */\n    tag_58:\n        /* \"#utility.yul\":11262:11266   */\n      0x00\n        /* \"#utility.yul\":11300:11302   */\n      0x20\n        /* \"#utility.yul\":11289:11298   */\n      dup3\n        /* \"#utility.yul\":11285:11303   */\n      add\n        /* \"#utility.yul\":11277:11303   */\n      swap1\n      pop\n        /* \"#utility.yul\":11349:11358   */\n      dup2\n        /* \"#utility.yul\":11343:11347   */\n      dup2\n        /* \"#utility.yul\":11339:11359   */\n      sub\n        /* \"#utility.yul\":11335:11336   */\n      0x00\n        /* \"#utility.yul\":11324:11333   */\n      dup4\n        /* \"#utility.yul\":11320:11337   */\n      add\n        /* \"#utility.yul\":11313:11360   */\n      mstore\n        /* \"#utility.yul\":11377:11508   */\n      tag_249\n        /* \"#utility.yul\":11503:11507   */\n      dup2\n        /* \"#utility.yul\":11377:11508   */\n      tag_109\n      jump\t// in\n    tag_249:\n        /* \"#utility.yul\":11369:11508   */\n      swap1\n      pop\n        /* \"#utility.yul\":11096:11515   */\n      swap2\n      swap1\n      pop\n      jump\t// out\n        /* \"#utility.yul\":11521:11754   */\n    tag_60:\n        /* \"#utility.yul\":11560:11563   */\n      0x00\n        /* \"#utility.yul\":11583:11607   */\n      tag_251\n        /* \"#utility.yul\":11601:11606   */\n      dup3\n        /* \"#utility.yul\":11583:11607   */\n      tag_77\n      jump\t// in\n    tag_251:\n        /* \"#utility.yul\":11574:11607   */\n      swap2\n      pop\n        /* \"#utility.yul\":11629:11695   */\n      0xffffffffffffffffffffffffffffffffffffffffffffffffffffffffffffffff\n        /* \"#utility.yul\":11622:11627   */\n      dup3\n        /* \"#utility.yul\":11619:11696   */\n      sub\n        /* \"#utility.yul\":11616:11719   */\n      tag_252\n      jumpi\n        /* \"#utility.yul\":11699:11717   */\n      tag_253\n      tag_105\n      jump\t// in\n    tag_253:\n        /* \"#utility.yul\":11616:11719   */\n    tag_252:\n        /* \"#utility.yul\":11746:11747   */\n      0x01\n        /* \"#utility.yul\":11739:11744   */\n      dup3\n        /* \"#utility.yul\":11735:11748   */\n      add\n        /* \"#utility.yul\":11728:11748   */\n      swap1\n      pop\n        /* \"#utility.yul\":11521:11754   */\n      swap2\n      swap1\n      pop\n      jump\t// out\n        /* \"#utility.yul\":11760:11901   */\n    tag_110:\n        /* \"#utility.yul\":11809:11813   */\n      0x00\n        /* \"#utility.yul\":11832:11835   */\n      dup2\n        /* \"#utility.yul\":11824:11835   */\n      swap1\n      pop\n        /* \"#utility.yul\":11855:11858   */\n      dup2\n        /* \"#utility.yul\":11852:11853   */\n      0x00\n        /* \"#utility.yul\":11845:11859   */\n      mstore\n        /* \"#utility.yul\":11889:11893   */\n      0x20\n        /* \"#utility.yul\":11886:11887   */\n      0x00\n        /* \"#utility.yul\":11876:11894   */\n      keccak256\n        /* \"#utility.yul\":11868:11894   */\n      swap1\n      pop\n        /* \"#utility.yul\":11760:11901   */\n      swap2\n      swap1\n      pop\n      jump\t// out\n        /* \"#utility.yul\":11907:12000   */\n    tag_111:\n        /* \"#utility.yul\":11944:11950   */\n      0x00\n        /* \"#utility.yul\":11991:11993   */\n      0x20\n        /* \"#utility.yul\":11986:11988   */\n      0x1f\n        /* \"#utility.yul\":11979:11984   */\n      dup4\n        /* \"#utility.yul\":11975:11989   */\n      add\n        /* \"#utility.yul\":11971:11994   */\n      div\n        /* \"#utility.yul\":11961:11994   */\n      swap1\n      pop\n        /* \"#utility.yul\":11907:12000   */\n      swap2\n      swap1\n      pop\n      jump\t// out\n        /* \"#utility.yul\":12006:12113   */\n    tag_112:\n        /* \"#utility.yul\":12050:12058   */\n      0x00\n        /* \"#utility.yul\":12100:12105   */\n      dup3\n        /* \"#utility.yul\":12094:12098   */\n      dup3\n        /* \"#utility.yul\":12090:12106   */\n      shl\n        /* \"#utility.yul\":12069:12106   */\n      swap1\n      pop\n        /* \"#utility.yul\":12006:12113   */\n      swap3\n      swap2\n      pop\n      pop\n      jump\t// out\n        /* \"#utility.yul\":12119:12512   */\n    tag_113:\n        /* \"#utility.yul\":12188:12194   */\n      0x00\n        /* \"#utility.yul\":12238:12239   */\n      0x08\n        /* \"#utility.yul\":12226:12236   */\n      dup4\n        /* \"#utility.yul\":12222:12240   */\n      mul\n        /* \"#utility.yul\":12261:12358   */\n      tag_258\n        /* \"#utility.yul\":12291:12357   */\n      0xffffffffffffffffffffffffffffffffffffffffffffffffffffffffffffffff\n        /* \"#utility.yul\":12280:12289   */\n      dup3\n        /* \"#utility.yul\":12261:12358   */\n      tag_112\n      jump\t// in\n    tag_258:\n        /* \"#utility.yul\":12379:12418   */\n      tag_259\n        /* \"#utility.yul\":12409:12417   */\n      dup7\n        /* \"#utility.yul\":12398:12407   */\n      dup4\n        /* \"#utility.yul\":12379:12418   */\n      tag_112\n      jump\t// in\n    tag_259:\n        /* \"#utility.yul\":12367:12418   */\n      swap6\n      pop\n        /* \"#utility.yul\":12451:12455   */\n      dup1\n        /* \"#utility.yul\":12447:12456   */\n      not\n        /* \"#utility.yul\":12440:12445   */\n      dup5\n        /* \"#utility.yul\":12436:12457   */\n      and\n        /* \"#utility.yul\":12427:12457   */\n      swap4\n      pop\n        /* \"#utility.yul\":12500:12504   */\n      dup1\n        /* \"#utility.yul\":12490:12498   */\n      dup7\n        /* \"#utility.yul\":12486:12505   */\n      and\n        /* \"#utility.yul\":12479:12484   */\n      dup5\n        /* \"#utility.yul\":12476:12506   */\n      or\n        /* \"#utility.yul\":12466:12506   */\n      swap3\n      pop\n        /* \"#utility.yul\":12195:12512   */\n      pop\n      pop\n        /* \"#utility.yul\":12119:12512   */\n      swap4\n      swap3\n      pop\n      pop\n      pop\n      jump\t// out\n        /* \"#utility.yul\":12518:12578   */\n    tag_114:\n        /* \"#utility.yul\":12546:12549   */\n      0x00\n        /* \"#utility.yul\":12567:12572   */\n      dup2\n        /* \"#utility.yul\":12560:12572   */\n      swap1\n      pop\n        /* \"#utility.yul\":12518:12578   */\n      swap2\n      swap1\n      pop\n      jump\t// out\n        /* \"#utility.yul\":12584:12726   */\n    tag_115:\n        /* \"#utility.yul\":12634:12643   */\n      0x00\n        /* \"#utility.yul\":12667:12720   */\n      tag_262\n        /* \"#utility.yul\":12685:12719   */\n      tag_263\n        /* \"#utility.yul\":12694:12718   */\n      tag_264\n        /* \"#utility.yul\":12712:12717   */\n      dup5\n        /* \"#utility.yul\":12694:12718   */\n      tag_77\n      jump\t// in\n    tag_264:\n        /* \"#utility.yul\":12685:12719   */\n      tag_114\n      jump\t// in\n    tag_263:\n        /* \"#utility.yul\":12667:12720   */\n      tag_77\n      jump\t// in\n    tag_262:\n        /* \"#utility.yul\":12654:12720   */\n      swap1\n      pop\n        /* \"#utility.yul\":12584:12726   */\n      swap2\n      swap1\n      pop\n      jump\t// out\n        /* \"#utility.yul\":12732:12807   */\n    tag_116:\n        /* \"#utility.yul\":12775:12778   */\n      0x00\n        /* \"#utility.yul\":12796:12801   */\n      dup2\n        /* \"#utility.yul\":12789:12801   */\n      swap1\n      pop\n        /* \"#utility.yul\":12732:12807   */\n      swap2\n      swap1\n      pop\n      jump\t// out\n        /* \"#utility.yul\":12813:13082   */\n    tag_117:\n        /* \"#utility.yul\":12923:12962   */\n      tag_267\n        /* \"#utility.yul\":12954:12961   */\n      dup4\n        /* \"#utility.yul\":12923:12962   */\n      tag_115\n      jump\t// in\n    tag_267:\n        /* \"#utility.yul\":12984:13075   */\n      tag_268\n        /* \"#utility.yul\":13033:13074   */\n      tag_269\n        /* \"#utility.yul\":13057:13073   */\n      dup3\n        /* \"#utility.yul\":13033:13074   */\n      tag_116\n      jump\t// in\n    tag_269:\n        /* \"#utility.yul\":13025:13031   */\n      dup5\n        /* \"#utility.yul\":13018:13022   */\n      dup5\n        /* \"#utility.yul\":13012:13023   */\n      sload\n        /* \"#utility.yul\":12984:13075   */\n      tag_113\n      jump\t// in\n    tag_268:\n        /* \"#utility.yul\":12978:12982   */\n      dup3\n        /* \"#utility.yul\":12971:13076   */\n      sstore\n        /* \"#utility.yul\":12889:13082   */\n      pop\n        /* \"#utility.yul\":12813:13082   */\n      pop\n      pop\n      pop\n      jump\t// out\n        /* \"#utility.yul\":13088:13161   */\n    tag_118:\n        /* \"#utility.yul\":13133:13136   */\n      0x00\n        /* \"#utility.yul\":13088:13161   */\n      swap1\n      jump\t// out\n        /* \"#utility.yul\":13167:13356   */\n    tag_119:\n        /* \"#utility.yul\":13244:13276   */\n      tag_272\n      tag_118\n      jump\t// in\n    tag_272:\n        /* \"#utility.yul\":13285:13350   */\n      tag_273\n        /* \"#utility.yul\":13343:13349   */\n      dup2\n        /* \"#utility.yul\":13335:13341   */\n      dup5\n        /* \"#utility.yul\":13329:13333   */\n      dup5\n        /* \"#utility.yul\":13285:13350   */\n      tag_117\n      jump\t// in\n    tag_273:\n        /* \"#utility.yul\":13220:13356   */\n      pop\n        /* \"#utility.yul\":13167:13356   */\n      pop\n      pop\n      jump\t// out\n        /* \"#utility.yul\":13362:13548   */\n    tag_120:\n        /* \"#utility.yul\":13422:13542   */\n    tag_275:\n        /* \"#utility.yul\":13439:13442   */\n      dup2\n        /* \"#utility.yul\":13432:13437   */\n      dup2\n        /* \"#utility.yul\":13429:13443   */\n      lt\n        /* \"#utility.yul\":13422:13542   */\n      iszero\n      tag_277\n      jumpi\n        /* \"#utility.yul\":13493:13532   */\n      tag_278\n        /* \"#utility.yul\":13530:13531   */\n      0x00\n        /* \"#utility.yul\":13523:13528   */\n      dup3\n        /* \"#utility.yul\":13493:13532   */\n      tag_119\n      jump\t// in\n    tag_278:\n        /* \"#utility.yul\":13466:13467   */\n      0x01\n        /* \"#utility.yul\":13459:13464   */\n      dup2\n        /* \"#utility.yul\":13455:13468   */\n      add\n        /* \"#utility.yul\":13446:13468   */\n      swap1\n      pop\n        /* \"#utility.yul\":13422:13542   */\n      jump(tag_275)\n    tag_277:\n        /* \"#utility.yul\":13362:13548   */\n      pop\n      pop\n      jump\t// out\n        /* \"#utility.yul\":13554:14097   */\n    tag_121:\n        /* \"#utility.yul\":13655:13657   */\n      0x1f\n        /* \"#utility.yul\":13650:13653   */\n      dup3\n        /* \"#utility.yul\":13647:13658   */\n      gt\n        /* \"#utility.yul\":13644:14090   */\n      iszero\n      tag_280\n      jumpi\n        /* \"#utility.yul\":13689:13727   */\n      tag_281\n        /* \"#utility.yul\":13721:13726   */\n      dup2\n        /* \"#utility.yul\":13689:13727   */\n      tag_110\n      jump\t// in\n    tag_281:\n        /* \"#utility.yul\":13773:13802   */\n      tag_282\n        /* \"#utility.yul\":13791:13801   */\n      dup5\n        /* \"#utility.yul\":13773:13802   */\n      tag_111\n      jump\t// in\n    tag_282:\n        /* \"#utility.yul\":13763:13771   */\n      dup2\n        /* \"#utility.yul\":13759:13803   */\n      add\n        /* \"#utility.yul\":13956:13958   */\n      0x20\n        /* \"#utility.yul\":13944:13954   */\n      dup6\n        /* \"#utility.yul\":13941:13959   */\n      lt\n        /* \"#utility.yul\":13938:13987   */\n      iszero\n      tag_283\n      jumpi\n        /* \"#utility.yul\":13977:13985   */\n      dup2\n        /* \"#utility.yul\":13962:13985   */\n      swap1\n      pop\n        /* \"#utility.yul\":13938:13987   */\n    tag_283:\n        /* \"#utility.yul\":14000:14080   */\n      tag_284\n        /* \"#utility.yul\":14056:14078   */\n      tag_285\n        /* \"#utility.yul\":14074:14077   */\n      dup6\n        /* \"#utility.yul\":14056:14078   */\n      tag_111\n      jump\t// in\n    tag_285:\n        /* \"#utility.yul\":14046:14054   */\n      dup4\n        /* \"#utility.yul\":14042:14079   */\n      add\n        /* \"#utility.yul\":14029:14040   */\n      dup3\n        /* \"#utility.yul\":14000:14080   */\n      tag_120\n      jump\t// in\n    tag_284:\n        /* \"#utility.yul\":13659:14090   */\n      pop\n      pop\n        /* \"#utility.yul\":13644:14090   */\n    tag_280:\n        /* \"#utility.yul\":13554:14097   */\n      pop\n      pop\n      pop\n      jump\t// out\n        /* \"#utility.yul\":14103:14220   */\n    tag_122:\n        /* \"#utility.yul\":14157:14165   */\n      0x00\n        /* \"#utility.yul\":14207:14212   */\n      dup3\n        /* \"#utility.yul\":14201:14205   */\n      dup3\n        /* \"#utility.yul\":14197:14213   */\n      shr\n        /* \"#utility.yul\":14176:14213   */\n      swap1\n      pop\n        /* \"#utility.yul\":14103:14220   */\n      swap3\n      swap2\n      pop\n      pop\n      jump\t// out\n        /* \"#utility.yul\":14226:14395   */\n    tag_123:\n        /* \"#utility.yul\":14270:14276   */\n      0x00\n        /* \"#utility.yul\":14303:14354   */\n      tag_288\n        /* \"#utility.yul\":14351:14352   */\n      0x00\n        /* \"#utility.yul\":14347:14353   */\n      not\n        /* \"#utility.yul\":14339:14344   */\n      dup5\n        /* \"#utility.yul\":14336:14337   */\n      0x08\n        /* \"#utility.yul\":14332:14345   */\n      mul\n        /* \"#utility.yul\":14303:14354   */\n      tag_122\n      jump\t// in\n    tag_288:\n        /* \"#utility.yul\":14299:14355   */\n      not\n        /* \"#utility.yul\":14384:14388   */\n      dup1\n        /* \"#utility.yul\":14378:14382   */\n      dup4\n        /* \"#utility.yul\":14374:14389   */\n      and\n        /* \"#utility.yul\":14364:14389   */\n      swap2\n      pop\n        /* \"#utility.yul\":14277:14395   */\n      pop\n        /* \"#utility.yul\":14226:14395   */\n      swap3\n      swap2\n      pop\n      pop\n      jump\t// out\n        /* \"#utility.yul\":14400:14695   */\n    tag_124:\n        /* \"#utility.yul\":14476:14480   */\n      0x00\n        /* \"#utility.yul\":14622:14651   */\n      tag_290\n        /* \"#utility.yul\":14647:14650   */\n      dup4\n        /* \"#utility.yul\":14641:14645   */\n      dup4\n        /* \"#utility.yul\":14622:14651   */\n      tag_123\n      jump\t// in\n    tag_290:\n        /* \"#utility.yul\":14614:14651   */\n      swap2\n      pop\n        /* \"#utility.yul\":14684:14687   */\n      dup3\n        /* \"#utility.yul\":14681:14682   */\n      0x02\n        /* \"#utility.yul\":14677:14688   */\n      mul\n        /* \"#utility.yul\":14671:14675   */\n      dup3\n        /* \"#utility.yul\":14668:14689   */\n      or\n        /* \"#utility.yul\":14660:14689   */\n      swap1\n      pop\n        /* \"#utility.yul\":14400:14695   */\n      swap3\n      swap2\n      pop\n      pop\n      jump\t// out\n        /* \"#utility.yul\":14700:16095   */\n    tag_62:\n        /* \"#utility.yul\":14817:14854   */\n      tag_292\n        /* \"#utility.yul\":14850:14853   */\n      dup3\n        /* \"#utility.yul\":14817:14854   */\n      tag_80\n      jump\t// in\n    tag_292:\n        /* \"#utility.yul\":14919:14937   */\n      0xffffffffffffffff\n        /* \"#utility.yul\":14911:14917   */\n      dup2\n        /* \"#utility.yul\":14908:14938   */\n      gt\n        /* \"#utility.yul\":14905:14961   */\n      iszero\n      tag_293\n      jumpi\n        /* \"#utility.yul\":14941:14959   */\n      tag_294\n      tag_95\n      jump\t// in\n    tag_294:\n        /* \"#utility.yul\":14905:14961   */\n    tag_293:\n        /* \"#utility.yul\":14985:15023   */\n      tag_295\n        /* \"#utility.yul\":15017:15021   */\n      dup3\n        /* \"#utility.yul\":15011:15022   */\n      sload\n        /* \"#utility.yul\":14985:15023   */\n      tag_37\n      jump\t// in\n    tag_295:\n        /* \"#utility.yul\":15070:15137   */\n      tag_296\n        /* \"#utility.yul\":15130:15136   */\n      dup3\n        /* \"#utility.yul\":15122:15128   */\n      dup3\n        /* \"#utility.yul\":15116:15120   */\n      dup6\n        /* \"#utility.yul\":15070:15137   */\n      tag_121\n      jump\t// in\n    tag_296:\n        /* \"#utility.yul\":15164:15165   */\n      0x00\n        /* \"#utility.yul\":15188:15192   */\n      0x20\n        /* \"#utility.yul\":15175:15192   */\n      swap1\n      pop\n        /* \"#utility.yul\":15220:15222   */\n      0x1f\n        /* \"#utility.yul\":15212:15218   */\n      dup4\n        /* \"#utility.yul\":15209:15223   */\n      gt\n        /* \"#utility.yul\":15237:15238   */\n      0x01\n        /* \"#utility.yul\":15232:15850   */\n      dup2\n      eq\n      tag_298\n      jumpi\n        /* \"#utility.yul\":15894:15895   */\n      0x00\n        /* \"#utility.yul\":15911:15917   */\n      dup5\n        /* \"#utility.yul\":15908:15985   */\n      iszero\n      tag_299\n      jumpi\n        /* \"#utility.yul\":15960:15969   */\n      dup3\n        /* \"#utility.yul\":15955:15958   */\n      dup8\n        /* \"#utility.yul\":15951:15970   */\n      add\n        /* \"#utility.yul\":15945:15971   */\n      mload\n        /* \"#utility.yul\":15936:15971   */\n      swap1\n      pop\n        /* \"#utility.yul\":15908:15985   */\n    tag_299:\n        /* \"#utility.yul\":16011:16078   */\n      tag_300\n        /* \"#utility.yul\":16071:16077   */\n      dup6\n        /* \"#utility.yul\":16064:16069   */\n      dup3\n        /* \"#utility.yul\":16011:16078   */\n      tag_124\n      jump\t// in\n    tag_300:\n        /* \"#utility.yul\":16005:16009   */\n      dup7\n        /* \"#utility.yul\":15998:16079   */\n      sstore\n        /* \"#utility.yul\":15867:16089   */\n      pop\n        /* \"#utility.yul\":15202:16089   */\n      jump(tag_297)\n        /* \"#utility.yul\":15232:15850   */\n    tag_298:\n        /* \"#utility.yul\":15284:15288   */\n      0x1f\n        /* \"#utility.yul\":15280:15289   */\n      not\n        /* \"#utility.yul\":15272:15278   */\n      dup5\n        /* \"#utility.yul\":15268:15290   */\n      and\n        /* \"#utility.yul\":15318:15355   */\n      tag_301\n        /* \"#utility.yul\":15350:15354   */\n      dup7\n        /* \"#utility.yul\":15318:15355   */\n      tag_110\n      jump\t// in\n    tag_301:\n        /* \"#utility.yul\":15377:15378   */\n      0x00\n        /* \"#utility.yul\":15391:15599   */\n    tag_302:\n        /* \"#utility.yul\":15405:15412   */\n      dup3\n        /* \"#utility.yul\":15402:15403   */\n      dup2\n        /* \"#utility.yul\":15399:15413   */\n      lt\n        /* \"#utility.yul\":15391:15599   */\n      iszero\n      tag_304\n      jumpi\n        /* \"#utility.yul\":15484:15493   */\n      dup5\n        /* \"#utility.yul\":15479:15482   */\n      dup10\n        /* \"#utility.yul\":15475:15494   */\n      add\n        /* \"#utility.yul\":15469:15495   */\n      mload\n        /* \"#utility.yul\":15461:15467   */\n      dup3\n        /* \"#utility.yul\":15454:15496   */\n      sstore\n        /* \"#utility.yul\":15535:15536   */\n      0x01\n        /* \"#utility.yul\":15527:15533   */\n      dup3\n        /* \"#utility.yul\":15523:15537   */\n      add\n        /* \"#utility.yul\":15513:15537   */\n      swap2\n      pop\n        /* \"#utility.yul\":15582:15584   */\n      0x20\n        /* \"#utility.yul\":15571:15580   */\n      dup6\n        /* \"#utility.yul\":15567:15585   */\n      add\n        /* \"#utility.yul\":15554:15585   */\n      swap5\n      pop\n        /* \"#utility.yul\":15428:15432   */\n      0x20\n        /* \"#utility.yul\":15425:15426   */\n      dup2\n        /* \"#utility.yul\":15421:15433   */\n      add\n        /* \"#utility.yul\":15416:15433   */\n      swap1\n      pop\n        /* \"#utility.yul\":15391:15599   */\n      jump(tag_302)\n    tag_304:\n        /* \"#utility.yul\":15627:15633   */\n      dup7\n        /* \"#utility.yul\":15618:15625   */\n      dup4\n        /* \"#utility.yul\":15615:15634   */\n      lt\n        /* \"#utility.yul\":15612:15791   */\n      iszero\n      tag_305\n      jumpi\n        /* \"#utility.yul\":15685:15694   */\n      dup5\n        /* \"#utility.yul\":15680:15683   */\n      dup10\n        /* \"#utility.yul\":15676:15695   */\n      add\n        /* \"#utility.yul\":15670:15696   */\n      mload\n        /* \"#utility.yul\":15728:15776   */\n      tag_306\n        /* \"#utility.yul\":15770:15774   */\n      0x1f\n        /* \"#utility.yul\":15762:15768   */\n      dup10\n        /* \"#utility.yul\":15758:15775   */\n      and\n        /* \"#utility.yul\":15747:15756   */\n      dup3\n        /* \"#utility.yul\":15728:15776   */\n      tag_123\n      jump\t// in\n    tag_306:\n        /* \"#utility.yul\":15720:15726   */\n      dup4\n        /* \"#utility.yul\":15713:15777   */\n      sstore\n        /* \"#utility.yul\":15635:15791   */\n      pop\n        /* \"#utility.yul\":15612:15791   */\n    tag_305:\n        /* \"#utility.yul\":15837:15838   */\n      0x01\n        /* \"#utility.yul\":15833:15834   */\n      0x02\n        /* \"#utility.yul\":15825:15831   */\n      dup9\n        /* \"#utility.yul\":15821:15835   */\n      mul\n        /* \"#utility.yul\":15817:15839   */\n      add\n        /* \"#utility.yul\":15811:15815   */\n      dup9\n        /* \"#utility.yul\":15804:15840   */\n      sstore\n        /* \"#utility.yul\":15239:15850   */\n      pop\n      pop\n      pop\n        /* \"#utility.yul\":15202:16089   */\n    tag_297:\n      pop\n        /* \"#utility.yul\":14792:16095   */\n      pop\n      pop\n      pop\n        /* \"#utility.yul\":14700:16095   */\n      pop\n      pop\n      jump\t// out\n        /* \"#utility.yul\":16101:16271   */\n    tag_125:\n        /* \"#utility.yul\":16241:16263   */\n      0x566f74652063616e6e6f742062652073656e642e000000000000000000000000\n        /* \"#utility.yul\":16237:16238   */\n      0x00\n        /* \"#utility.yul\":16229:16235   */\n      dup3\n        /* \"#utility.yul\":16225:16239   */\n      add\n        /* \"#utility.yul\":16218:16264   */\n      mstore\n        /* \"#utility.yul\":16101:16271   */\n      pop\n      jump\t// out\n        /* \"#utility.yul\":16277:16643   */\n    tag_126:\n        /* \"#utility.yul\":16419:16422   */\n      0x00\n        /* \"#utility.yul\":16440:16507   */\n      tag_309\n        /* \"#utility.yul\":16504:16506   */\n      0x14\n        /* \"#utility.yul\":16499:16502   */\n      dup4\n        /* \"#utility.yul\":16440:16507   */\n      tag_81\n      jump\t// in\n    tag_309:\n        /* \"#utility.yul\":16433:16507   */\n      swap2\n      pop\n        /* \"#utility.yul\":16516:16609   */\n      tag_310\n        /* \"#utility.yul\":16605:16608   */\n      dup3\n        /* \"#utility.yul\":16516:16609   */\n      tag_125\n      jump\t// in\n    tag_310:\n        /* \"#utility.yul\":16634:16636   */\n      0x20\n        /* \"#utility.yul\":16629:16632   */\n      dup3\n        /* \"#utility.yul\":16625:16637   */\n      add\n        /* \"#utility.yul\":16618:16637   */\n      swap1\n      pop\n        /* \"#utility.yul\":16277:16643   */\n      swap2\n      swap1\n      pop\n      jump\t// out\n        /* \"#utility.yul\":16649:17068   */\n    tag_69:\n        /* \"#utility.yul\":16815:16819   */\n      0x00\n        /* \"#utility.yul\":16853:16855   */\n      0x20\n        /* \"#utility.yul\":16842:16851   */\n      dup3\n        /* \"#utility.yul\":16838:16856   */\n      add\n        /* \"#utility.yul\":16830:16856   */\n      swap1\n      pop\n        /* \"#utility.yul\":16902:16911   */\n      dup2\n        /* \"#utility.yul\":16896:16900   */\n      dup2\n        /* \"#utility.yul\":16892:16912   */\n      sub\n        /* \"#utility.yul\":16888:16889   */\n      0x00\n        /* \"#utility.yul\":16877:16886   */\n      dup4\n        /* \"#utility.yul\":16873:16890   */\n      add\n        /* \"#utility.yul\":16866:16913   */\n      mstore\n        /* \"#utility.yul\":16930:17061   */\n      tag_312\n        /* \"#utility.yul\":17056:17060   */\n      dup2\n        /* \"#utility.yul\":16930:17061   */\n      tag_126\n      jump\t// in\n    tag_312:\n        /* \"#utility.yul\":16922:17061   */\n      swap1\n      pop\n        /* \"#utility.yul\":16649:17068   */\n      swap2\n      swap1\n      pop\n      jump\t// out\n\n    auxdata: 0xa2646970667358221220adbb6745369ebabb023d53be3327bcde047a4063aeb57c7e7840d84752c0452364736f6c634300081a0033\n}\n",
				"bytecode": {
					"linkReferences": {},
					"object": "6080604052348015600e575f80fd5b506110878061001c5f395ff3fe608060405234801561000f575f80fd5b5060043610610060575f3560e01c8063013cf08b14610064578063438596321461009b5780635652077c146100cb578063a91703ec146100e7578063c9d27afe14610103578063da35c6641461011f575b5f80fd5b61007e60048036038101906100799190610779565b61013d565b60405161009298979695949392919061087c565b60405180910390f35b6100b560048036038101906100b09190610930565b6102c4565b6040516100c2919061096e565b60405180910390f35b6100e560048036038101906100e09190610779565b6102ee565b005b61010160048036038101906100fc9190610ab3565b610403565b005b61011d60048036038101906101189190610b53565b61059c565b005b61012761072f565b6040516101349190610b91565b60405180910390f35b5f602052805f5260405f205f91509050805f01805461015b90610bd7565b80601f016020809104026020016040519081016040528092919081815260200182805461018790610bd7565b80156101d25780601f106101a9576101008083540402835291602001916101d2565b820191905f5260205f20905b8154815290600101906020018083116101b557829003601f168201915b5050505050908060010180546101e790610bd7565b80601f016020809104026020016040519081016040528092919081815260200182805461021390610bd7565b801561025e5780601f106102355761010080835404028352916020019161025e565b820191905f5260205f20905b81548152906001019060200180831161024157829003601f168201915b505050505090806002015f9054906101000a900473ffffffffffffffffffffffffffffffffffffffff1690806003015490806004015490806005015490806006015f9054906101000a900460ff16908060060160019054906101000a900460ff16905088565b6001602052815f5260405f20602052805f5260405f205f915091509054906101000a900460ff1681565b5f808281526020019081526020015f206006015f9054906101000a900460ff1615801561033b57506102585f808381526020019081526020015f2060050154426103389190610c34565b10155b61037a576040517f08c379a000000000000000000000000000000000000000000000000000000000815260040161037190610cd7565b60405180910390fd5b60015f808381526020019081526020015f206006015f6101000a81548160ff0219169083151502179055505f808281526020019081526020015f20600401545f808381526020019081526020015f206003015411156104005760015f808381526020019081526020015f2060060160016101000a81548160ff0219169083151502179055505b50565b5f825111610446576040517f08c379a000000000000000000000000000000000000000000000000000000000815260040161043d90610d18565b60405180910390fd5b5f6040518061010001604052808381526020018481526020013373ffffffffffffffffffffffffffffffffffffffff1681526020015f81526020015f81526020014281526020015f151581526020015f1515815250905060025f8154809291906104af90610d36565b9190505550805f8060025481526020019081526020015f205f820151815f0190816104da9190610f1a565b5060208201518160010190816104f09190610f1a565b506040820151816002015f6101000a81548173ffffffffffffffffffffffffffffffffffffffff021916908373ffffffffffffffffffffffffffffffffffffffff160217905550606082015181600301556080820151816004015560a0820151816005015560c0820151816006015f6101000a81548160ff02191690831515021790555060e08201518160060160016101000a81548160ff021916908315150217905550905050505050565b6105a5826102ee565b5f808381526020019081526020015f206006015f9054906101000a900460ff1615801561062d57505f151560015f8481526020019081526020015f205f3373ffffffffffffffffffffffffffffffffffffffff1673ffffffffffffffffffffffffffffffffffffffff1681526020019081526020015f205f9054906101000a900460ff161515145b61066c576040517f08c379a000000000000000000000000000000000000000000000000000000000815260040161066390611033565b60405180910390fd5b6001805f8481526020019081526020015f205f3373ffffffffffffffffffffffffffffffffffffffff1673ffffffffffffffffffffffffffffffffffffffff1681526020019081526020015f205f6101000a81548160ff0219169083151502179055508015610702575f808381526020019081526020015f206003015f8154809291906106f890610d36565b919050555061072b565b5f808381526020019081526020015f206004015f81548092919061072590610d36565b91905055505b5050565b60025481565b5f604051905090565b5f80fd5b5f80fd5b5f819050919050565b61075881610746565b8114610762575f80fd5b50565b5f813590506107738161074f565b92915050565b5f6020828403121561078e5761078d61073e565b5b5f61079b84828501610765565b91505092915050565b5f81519050919050565b5f82825260208201905092915050565b8281835e5f83830152505050565b5f601f19601f8301169050919050565b5f6107e6826107a4565b6107f081856107ae565b93506108008185602086016107be565b610809816107cc565b840191505092915050565b5f73ffffffffffffffffffffffffffffffffffffffff82169050919050565b5f61083d82610814565b9050919050565b61084d81610833565b82525050565b61085c81610746565b82525050565b5f8115159050919050565b61087681610862565b82525050565b5f610100820190508181035f830152610895818b6107dc565b905081810360208301526108a9818a6107dc565b90506108b86040830189610844565b6108c56060830188610853565b6108d26080830187610853565b6108df60a0830186610853565b6108ec60c083018561086d565b6108f960e083018461086d565b9998505050505050505050565b61090f81610833565b8114610919575f80fd5b50565b5f8135905061092a81610906565b92915050565b5f80604083850312156109465761094561073e565b5b5f61095385828601610765565b92505060206109648582860161091c565b9150509250929050565b5f6020820190506109815f83018461086d565b92915050565b5f80fd5b5f80fd5b7f4e487b71000000000000000000000000000000000000000000000000000000005f52604160045260245ffd5b6109c5826107cc565b810181811067ffffffffffffffff821117156109e4576109e361098f565b5b80604052505050565b5f6109f6610735565b9050610a0282826109bc565b919050565b5f67ffffffffffffffff821115610a2157610a2061098f565b5b610a2a826107cc565b9050602081019050919050565b828183375f83830152505050565b5f610a57610a5284610a07565b6109ed565b905082815260208101848484011115610a7357610a7261098b565b5b610a7e848285610a37565b509392505050565b5f82601f830112610a9a57610a99610987565b5b8135610aaa848260208601610a45565b91505092915050565b5f8060408385031215610ac957610ac861073e565b5b5f83013567ffffffffffffffff811115610ae657610ae5610742565b5b610af285828601610a86565b925050602083013567ffffffffffffffff811115610b1357610b12610742565b5b610b1f85828601610a86565b9150509250929050565b610b3281610862565b8114610b3c575f80fd5b50565b5f81359050610b4d81610b29565b92915050565b5f8060408385031215610b6957610b6861073e565b5b5f610b7685828601610765565b9250506020610b8785828601610b3f565b9150509250929050565b5f602082019050610ba45f830184610853565b92915050565b7f4e487b71000000000000000000000000000000000000000000000000000000005f52602260045260245ffd5b5f6002820490506001821680610bee57607f821691505b602082108103610c0157610c00610baa565b5b50919050565b7f4e487b71000000000000000000000000000000000000000000000000000000005f52601160045260245ffd5b5f610c3e82610746565b9150610c4983610746565b9250828203905081811115610c6157610c60610c07565b5b92915050565b7f566f746520776173206e6f742066696e697368206f7220616c726561647920665f8201527f696e6973682e0000000000000000000000000000000000000000000000000000602082015250565b5f610cc16026836107ae565b9150610ccc82610c67565b604082019050919050565b5f6020820190508181035f830152610cee81610cb5565b9050919050565b50565b5f610d035f836107ae565b9150610d0e82610cf5565b5f82019050919050565b5f6020820190508181035f830152610d2f81610cf8565b9050919050565b5f610d4082610746565b91507fffffffffffffffffffffffffffffffffffffffffffffffffffffffffffffffff8203610d7257610d71610c07565b5b600182019050919050565b5f819050815f5260205f209050919050565b5f6020601f8301049050919050565b5f82821b905092915050565b5f60088302610dd97fffffffffffffffffffffffffffffffffffffffffffffffffffffffffffffffff82610d9e565b610de38683610d9e565b95508019841693508086168417925050509392505050565b5f819050919050565b5f610e1e610e19610e1484610746565b610dfb565b610746565b9050919050565b5f819050919050565b610e3783610e04565b610e4b610e4382610e25565b848454610daa565b825550505050565b5f90565b610e5f610e53565b610e6a818484610e2e565b505050565b5b81811015610e8d57610e825f82610e57565b600181019050610e70565b5050565b601f821115610ed257610ea381610d7d565b610eac84610d8f565b81016020851015610ebb578190505b610ecf610ec785610d8f565b830182610e6f565b50505b505050565b5f82821c905092915050565b5f610ef25f1984600802610ed7565b1980831691505092915050565b5f610f0a8383610ee3565b9150826002028217905092915050565b610f23826107a4565b67ffffffffffffffff811115610f3c57610f3b61098f565b5b610f468254610bd7565b610f51828285610e91565b5f60209050601f831160018114610f82575f8415610f70578287015190505b610f7a8582610eff565b865550610fe1565b601f198416610f9086610d7d565b5f5b82811015610fb757848901518255600182019150602085019450602081019050610f92565b86831015610fd45784890151610fd0601f891682610ee3565b8355505b6001600288020188555050505b505050505050565b7f566f74652063616e6e6f742062652073656e642e0000000000000000000000005f82015250565b5f61101d6014836107ae565b915061102882610fe9565b602082019050919050565b5f6020820190508181035f83015261104a81611011565b905091905056fea2646970667358221220adbb6745369ebabb023d53be3327bcde047a4063aeb57c7e7840d84752c0452364736f6c634300081a0033",
					"opcodes": "PUSH1 0x80 PUSH1 0x40 MSTORE CALLVALUE DUP1 ISZERO PUSH1 0xE JUMPI PUSH0 DUP1 REVERT JUMPDEST POP PUSH2 0x1087 DUP1 PUSH2 0x1C PUSH0 CODECOPY PUSH0 RETURN INVALID PUSH1 0x80 PUSH1 0x40 MSTORE CALLVALUE DUP1 ISZERO PUSH2 0xF JUMPI PUSH0 DUP1 REVERT JUMPDEST POP PUSH1 0x4 CALLDATASIZE LT PUSH2 0x60 JUMPI PUSH0 CALLDATALOAD PUSH1 0xE0 SHR DUP1 PUSH4 0x13CF08B EQ PUSH2 0x64 JUMPI DUP1 PUSH4 0x43859632 EQ PUSH2 0x9B JUMPI DUP1 PUSH4 0x5652077C EQ PUSH2 0xCB JUMPI DUP1 PUSH4 0xA91703EC EQ PUSH2 0xE7 JUMPI DUP1 PUSH4 0xC9D27AFE EQ PUSH2 0x103 JUMPI DUP1 PUSH4 0xDA35C664 EQ PUSH2 0x11F JUMPI JUMPDEST PUSH0 DUP1 REVERT JUMPDEST PUSH2 0x7E PUSH1 0x4 DUP1 CALLDATASIZE SUB DUP2 ADD SWAP1 PUSH2 0x79 SWAP2 SWAP1 PUSH2 0x779 JUMP JUMPDEST PUSH2 0x13D JUMP JUMPDEST PUSH1 0x40 MLOAD PUSH2 0x92 SWAP9 SWAP8 SWAP7 SWAP6 SWAP5 SWAP4 SWAP3 SWAP2 SWAP1 PUSH2 0x87C JUMP JUMPDEST PUSH1 0x40 MLOAD DUP1 SWAP2 SUB SWAP1 RETURN JUMPDEST PUSH2 0xB5 PUSH1 0x4 DUP1 CALLDATASIZE SUB DUP2 ADD SWAP1 PUSH2 0xB0 SWAP2 SWAP1 PUSH2 0x930 JUMP JUMPDEST PUSH2 0x2C4 JUMP JUMPDEST PUSH1 0x40 MLOAD PUSH2 0xC2 SWAP2 SWAP1 PUSH2 0x96E JUMP JUMPDEST PUSH1 0x40 MLOAD DUP1 SWAP2 SUB SWAP1 RETURN JUMPDEST PUSH2 0xE5 PUSH1 0x4 DUP1 CALLDATASIZE SUB DUP2 ADD SWAP1 PUSH2 0xE0 SWAP2 SWAP1 PUSH2 0x779 JUMP JUMPDEST PUSH2 0x2EE JUMP JUMPDEST STOP JUMPDEST PUSH2 0x101 PUSH1 0x4 DUP1 CALLDATASIZE SUB DUP2 ADD SWAP1 PUSH2 0xFC SWAP2 SWAP1 PUSH2 0xAB3 JUMP JUMPDEST PUSH2 0x403 JUMP JUMPDEST STOP JUMPDEST PUSH2 0x11D PUSH1 0x4 DUP1 CALLDATASIZE SUB DUP2 ADD SWAP1 PUSH2 0x118 SWAP2 SWAP1 PUSH2 0xB53 JUMP JUMPDEST PUSH2 0x59C JUMP JUMPDEST STOP JUMPDEST PUSH2 0x127 PUSH2 0x72F JUMP JUMPDEST PUSH1 0x40 MLOAD PUSH2 0x134 SWAP2 SWAP1 PUSH2 0xB91 JUMP JUMPDEST PUSH1 0x40 MLOAD DUP1 SWAP2 SUB SWAP1 RETURN JUMPDEST PUSH0 PUSH1 0x20 MSTORE DUP1 PUSH0 MSTORE PUSH1 0x40 PUSH0 KECCAK256 PUSH0 SWAP2 POP SWAP1 POP DUP1 PUSH0 ADD DUP1 SLOAD PUSH2 0x15B SWAP1 PUSH2 0xBD7 JUMP JUMPDEST DUP1 PUSH1 0x1F ADD PUSH1 0x20 DUP1 SWAP2 DIV MUL PUSH1 0x20 ADD PUSH1 0x40 MLOAD SWAP1 DUP2 ADD PUSH1 0x40 MSTORE DUP1 SWAP3 SWAP2 SWAP1 DUP2 DUP2 MSTORE PUSH1 0x20 ADD DUP3 DUP1 SLOAD PUSH2 0x187 SWAP1 PUSH2 0xBD7 JUMP JUMPDEST DUP1 ISZERO PUSH2 0x1D2 JUMPI DUP1 PUSH1 0x1F LT PUSH2 0x1A9 JUMPI PUSH2 0x100 DUP1 DUP4 SLOAD DIV MUL DUP4 MSTORE SWAP2 PUSH1 0x20 ADD SWAP2 PUSH2 0x1D2 JUMP JUMPDEST DUP3 ADD SWAP2 SWAP1 PUSH0 MSTORE PUSH1 0x20 PUSH0 KECCAK256 SWAP1 JUMPDEST DUP2 SLOAD DUP2 MSTORE SWAP1 PUSH1 0x1 ADD SWAP1 PUSH1 0x20 ADD DUP1 DUP4 GT PUSH2 0x1B5 JUMPI DUP3 SWAP1 SUB PUSH1 0x1F AND DUP3 ADD SWAP2 JUMPDEST POP POP POP POP POP SWAP1 DUP1 PUSH1 0x1 ADD DUP1 SLOAD PUSH2 0x1E7 SWAP1 PUSH2 0xBD7 JUMP JUMPDEST DUP1 PUSH1 0x1F ADD PUSH1 0x20 DUP1 SWAP2 DIV MUL PUSH1 0x20 ADD PUSH1 0x40 MLOAD SWAP1 DUP2 ADD PUSH1 0x40 MSTORE DUP1 SWAP3 SWAP2 SWAP1 DUP2 DUP2 MSTORE PUSH1 0x20 ADD DUP3 DUP1 SLOAD PUSH2 0x213 SWAP1 PUSH2 0xBD7 JUMP JUMPDEST DUP1 ISZERO PUSH2 0x25E JUMPI DUP1 PUSH1 0x1F LT PUSH2 0x235 JUMPI PUSH2 0x100 DUP1 DUP4 SLOAD DIV MUL DUP4 MSTORE SWAP2 PUSH1 0x20 ADD SWAP2 PUSH2 0x25E JUMP JUMPDEST DUP3 ADD SWAP2 SWAP1 PUSH0 MSTORE PUSH1 0x20 PUSH0 KECCAK256 SWAP1 JUMPDEST DUP2 SLOAD DUP2 MSTORE SWAP1 PUSH1 0x1 ADD SWAP1 PUSH1 0x20 ADD DUP1 DUP4 GT PUSH2 0x241 JUMPI DUP3 SWAP1 SUB PUSH1 0x1F AND DUP3 ADD SWAP2 JUMPDEST POP POP POP POP POP SWAP1 DUP1 PUSH1 0x2 ADD PUSH0 SWAP1 SLOAD SWAP1 PUSH2 0x100 EXP SWAP1 DIV PUSH20 0xFFFFFFFFFFFFFFFFFFFFFFFFFFFFFFFFFFFFFFFF AND SWAP1 DUP1 PUSH1 0x3 ADD SLOAD SWAP1 DUP1 PUSH1 0x4 ADD SLOAD SWAP1 DUP1 PUSH1 0x5 ADD SLOAD SWAP1 DUP1 PUSH1 0x6 ADD PUSH0 SWAP1 SLOAD SWAP1 PUSH2 0x100 EXP SWAP1 DIV PUSH1 0xFF AND SWAP1 DUP1 PUSH1 0x6 ADD PUSH1 0x1 SWAP1 SLOAD SWAP1 PUSH2 0x100 EXP SWAP1 DIV PUSH1 0xFF AND SWAP1 POP DUP9 JUMP JUMPDEST PUSH1 0x1 PUSH1 0x20 MSTORE DUP2 PUSH0 MSTORE PUSH1 0x40 PUSH0 KECCAK256 PUSH1 0x20 MSTORE DUP1 PUSH0 MSTORE PUSH1 0x40 PUSH0 KECCAK256 PUSH0 SWAP2 POP SWAP2 POP SWAP1 SLOAD SWAP1 PUSH2 0x100 EXP SWAP1 DIV PUSH1 0xFF AND DUP2 JUMP JUMPDEST PUSH0 DUP1 DUP3 DUP2 MSTORE PUSH1 0x20 ADD SWAP1 DUP2 MSTORE PUSH1 0x20 ADD PUSH0 KECCAK256 PUSH1 0x6 ADD PUSH0 SWAP1 SLOAD SWAP1 PUSH2 0x100 EXP SWAP1 DIV PUSH1 0xFF AND ISZERO DUP1 ISZERO PUSH2 0x33B JUMPI POP PUSH2 0x258 PUSH0 DUP1 DUP4 DUP2 MSTORE PUSH1 0x20 ADD SWAP1 DUP2 MSTORE PUSH1 0x20 ADD PUSH0 KECCAK256 PUSH1 0x5 ADD SLOAD TIMESTAMP PUSH2 0x338 SWAP2 SWAP1 PUSH2 0xC34 JUMP JUMPDEST LT ISZERO JUMPDEST PUSH2 0x37A JUMPI PUSH1 0x40 MLOAD PUSH32 0x8C379A000000000000000000000000000000000000000000000000000000000 DUP2 MSTORE PUSH1 0x4 ADD PUSH2 0x371 SWAP1 PUSH2 0xCD7 JUMP JUMPDEST PUSH1 0x40 MLOAD DUP1 SWAP2 SUB SWAP1 REVERT JUMPDEST PUSH1 0x1 PUSH0 DUP1 DUP4 DUP2 MSTORE PUSH1 0x20 ADD SWAP1 DUP2 MSTORE PUSH1 0x20 ADD PUSH0 KECCAK256 PUSH1 0x6 ADD PUSH0 PUSH2 0x100 EXP DUP2 SLOAD DUP2 PUSH1 0xFF MUL NOT AND SWAP1 DUP4 ISZERO ISZERO MUL OR SWAP1 SSTORE POP PUSH0 DUP1 DUP3 DUP2 MSTORE PUSH1 0x20 ADD SWAP1 DUP2 MSTORE PUSH1 0x20 ADD PUSH0 KECCAK256 PUSH1 0x4 ADD SLOAD PUSH0 DUP1 DUP4 DUP2 MSTORE PUSH1 0x20 ADD SWAP1 DUP2 MSTORE PUSH1 0x20 ADD PUSH0 KECCAK256 PUSH1 0x3 ADD SLOAD GT ISZERO PUSH2 0x400 JUMPI PUSH1 0x1 PUSH0 DUP1 DUP4 DUP2 MSTORE PUSH1 0x20 ADD SWAP1 DUP2 MSTORE PUSH1 0x20 ADD PUSH0 KECCAK256 PUSH1 0x6 ADD PUSH1 0x1 PUSH2 0x100 EXP DUP2 SLOAD DUP2 PUSH1 0xFF MUL NOT AND SWAP1 DUP4 ISZERO ISZERO MUL OR SWAP1 SSTORE POP JUMPDEST POP JUMP JUMPDEST PUSH0 DUP3 MLOAD GT PUSH2 0x446 JUMPI PUSH1 0x40 MLOAD PUSH32 0x8C379A000000000000000000000000000000000000000000000000000000000 DUP2 MSTORE PUSH1 0x4 ADD PUSH2 0x43D SWAP1 PUSH2 0xD18 JUMP JUMPDEST PUSH1 0x40 MLOAD DUP1 SWAP2 SUB SWAP1 REVERT JUMPDEST PUSH0 PUSH1 0x40 MLOAD DUP1 PUSH2 0x100 ADD PUSH1 0x40 MSTORE DUP1 DUP4 DUP2 MSTORE PUSH1 0x20 ADD DUP5 DUP2 MSTORE PUSH1 0x20 ADD CALLER PUSH20 0xFFFFFFFFFFFFFFFFFFFFFFFFFFFFFFFFFFFFFFFF AND DUP2 MSTORE PUSH1 0x20 ADD PUSH0 DUP2 MSTORE PUSH1 0x20 ADD PUSH0 DUP2 MSTORE PUSH1 0x20 ADD TIMESTAMP DUP2 MSTORE PUSH1 0x20 ADD PUSH0 ISZERO ISZERO DUP2 MSTORE PUSH1 0x20 ADD PUSH0 ISZERO ISZERO DUP2 MSTORE POP SWAP1 POP PUSH1 0x2 PUSH0 DUP2 SLOAD DUP1 SWAP3 SWAP2 SWAP1 PUSH2 0x4AF SWAP1 PUSH2 0xD36 JUMP JUMPDEST SWAP2 SWAP1 POP SSTORE POP DUP1 PUSH0 DUP1 PUSH1 0x2 SLOAD DUP2 MSTORE PUSH1 0x20 ADD SWAP1 DUP2 MSTORE PUSH1 0x20 ADD PUSH0 KECCAK256 PUSH0 DUP3 ADD MLOAD DUP2 PUSH0 ADD SWAP1 DUP2 PUSH2 0x4DA SWAP2 SWAP1 PUSH2 0xF1A JUMP JUMPDEST POP PUSH1 0x20 DUP3 ADD MLOAD DUP2 PUSH1 0x1 ADD SWAP1 DUP2 PUSH2 0x4F0 SWAP2 SWAP1 PUSH2 0xF1A JUMP JUMPDEST POP PUSH1 0x40 DUP3 ADD MLOAD DUP2 PUSH1 0x2 ADD PUSH0 PUSH2 0x100 EXP DUP2 SLOAD DUP2 PUSH20 0xFFFFFFFFFFFFFFFFFFFFFFFFFFFFFFFFFFFFFFFF MUL NOT AND SWAP1 DUP4 PUSH20 0xFFFFFFFFFFFFFFFFFFFFFFFFFFFFFFFFFFFFFFFF AND MUL OR SWAP1 SSTORE POP PUSH1 0x60 DUP3 ADD MLOAD DUP2 PUSH1 0x3 ADD SSTORE PUSH1 0x80 DUP3 ADD MLOAD DUP2 PUSH1 0x4 ADD SSTORE PUSH1 0xA0 DUP3 ADD MLOAD DUP2 PUSH1 0x5 ADD SSTORE PUSH1 0xC0 DUP3 ADD MLOAD DUP2 PUSH1 0x6 ADD PUSH0 PUSH2 0x100 EXP DUP2 SLOAD DUP2 PUSH1 0xFF MUL NOT AND SWAP1 DUP4 ISZERO ISZERO MUL OR SWAP1 SSTORE POP PUSH1 0xE0 DUP3 ADD MLOAD DUP2 PUSH1 0x6 ADD PUSH1 0x1 PUSH2 0x100 EXP DUP2 SLOAD DUP2 PUSH1 0xFF MUL NOT AND SWAP1 DUP4 ISZERO ISZERO MUL OR SWAP1 SSTORE POP SWAP1 POP POP POP POP POP JUMP JUMPDEST PUSH2 0x5A5 DUP3 PUSH2 0x2EE JUMP JUMPDEST PUSH0 DUP1 DUP4 DUP2 MSTORE PUSH1 0x20 ADD SWAP1 DUP2 MSTORE PUSH1 0x20 ADD PUSH0 KECCAK256 PUSH1 0x6 ADD PUSH0 SWAP1 SLOAD SWAP1 PUSH2 0x100 EXP SWAP1 DIV PUSH1 0xFF AND ISZERO DUP1 ISZERO PUSH2 0x62D JUMPI POP PUSH0 ISZERO ISZERO PUSH1 0x1 PUSH0 DUP5 DUP2 MSTORE PUSH1 0x20 ADD SWAP1 DUP2 MSTORE PUSH1 0x20 ADD PUSH0 KECCAK256 PUSH0 CALLER PUSH20 0xFFFFFFFFFFFFFFFFFFFFFFFFFFFFFFFFFFFFFFFF AND PUSH20 0xFFFFFFFFFFFFFFFFFFFFFFFFFFFFFFFFFFFFFFFF AND DUP2 MSTORE PUSH1 0x20 ADD SWAP1 DUP2 MSTORE PUSH1 0x20 ADD PUSH0 KECCAK256 PUSH0 SWAP1 SLOAD SWAP1 PUSH2 0x100 EXP SWAP1 DIV PUSH1 0xFF AND ISZERO ISZERO EQ JUMPDEST PUSH2 0x66C JUMPI PUSH1 0x40 MLOAD PUSH32 0x8C379A000000000000000000000000000000000000000000000000000000000 DUP2 MSTORE PUSH1 0x4 ADD PUSH2 0x663 SWAP1 PUSH2 0x1033 JUMP JUMPDEST PUSH1 0x40 MLOAD DUP1 SWAP2 SUB SWAP1 REVERT JUMPDEST PUSH1 0x1 DUP1 PUSH0 DUP5 DUP2 MSTORE PUSH1 0x20 ADD SWAP1 DUP2 MSTORE PUSH1 0x20 ADD PUSH0 KECCAK256 PUSH0 CALLER PUSH20 0xFFFFFFFFFFFFFFFFFFFFFFFFFFFFFFFFFFFFFFFF AND PUSH20 0xFFFFFFFFFFFFFFFFFFFFFFFFFFFFFFFFFFFFFFFF AND DUP2 MSTORE PUSH1 0x20 ADD SWAP1 DUP2 MSTORE PUSH1 0x20 ADD PUSH0 KECCAK256 PUSH0 PUSH2 0x100 EXP DUP2 SLOAD DUP2 PUSH1 0xFF MUL NOT AND SWAP1 DUP4 ISZERO ISZERO MUL OR SWAP1 SSTORE POP DUP1 ISZERO PUSH2 0x702 JUMPI PUSH0 DUP1 DUP4 DUP2 MSTORE PUSH1 0x20 ADD SWAP1 DUP2 MSTORE PUSH1 0x20 ADD PUSH0 KECCAK256 PUSH1 0x3 ADD PUSH0 DUP2 SLOAD DUP1 SWAP3 SWAP2 SWAP1 PUSH2 0x6F8 SWAP1 PUSH2 0xD36 JUMP JUMPDEST SWAP2 SWAP1 POP SSTORE POP PUSH2 0x72B JUMP JUMPDEST PUSH0 DUP1 DUP4 DUP2 MSTORE PUSH1 0x20 ADD SWAP1 DUP2 MSTORE PUSH1 0x20 ADD PUSH0 KECCAK256 PUSH1 0x4 ADD PUSH0 DUP2 SLOAD DUP1 SWAP3 SWAP2 SWAP1 PUSH2 0x725 SWAP1 PUSH2 0xD36 JUMP JUMPDEST SWAP2 SWAP1 POP SSTORE POP JUMPDEST POP POP JUMP JUMPDEST PUSH1 0x2 SLOAD DUP2 JUMP JUMPDEST PUSH0 PUSH1 0x40 MLOAD SWAP1 POP SWAP1 JUMP JUMPDEST PUSH0 DUP1 REVERT JUMPDEST PUSH0 DUP1 REVERT JUMPDEST PUSH0 DUP2 SWAP1 POP SWAP2 SWAP1 POP JUMP JUMPDEST PUSH2 0x758 DUP2 PUSH2 0x746 JUMP JUMPDEST DUP2 EQ PUSH2 0x762 JUMPI PUSH0 DUP1 REVERT JUMPDEST POP JUMP JUMPDEST PUSH0 DUP2 CALLDATALOAD SWAP1 POP PUSH2 0x773 DUP2 PUSH2 0x74F JUMP JUMPDEST SWAP3 SWAP2 POP POP JUMP JUMPDEST PUSH0 PUSH1 0x20 DUP3 DUP5 SUB SLT ISZERO PUSH2 0x78E JUMPI PUSH2 0x78D PUSH2 0x73E JUMP JUMPDEST JUMPDEST PUSH0 PUSH2 0x79B DUP5 DUP3 DUP6 ADD PUSH2 0x765 JUMP JUMPDEST SWAP2 POP POP SWAP3 SWAP2 POP POP JUMP JUMPDEST PUSH0 DUP2 MLOAD SWAP1 POP SWAP2 SWAP1 POP JUMP JUMPDEST PUSH0 DUP3 DUP3 MSTORE PUSH1 0x20 DUP3 ADD SWAP1 POP SWAP3 SWAP2 POP POP JUMP JUMPDEST DUP3 DUP2 DUP4 MCOPY PUSH0 DUP4 DUP4 ADD MSTORE POP POP POP JUMP JUMPDEST PUSH0 PUSH1 0x1F NOT PUSH1 0x1F DUP4 ADD AND SWAP1 POP SWAP2 SWAP1 POP JUMP JUMPDEST PUSH0 PUSH2 0x7E6 DUP3 PUSH2 0x7A4 JUMP JUMPDEST PUSH2 0x7F0 DUP2 DUP6 PUSH2 0x7AE JUMP JUMPDEST SWAP4 POP PUSH2 0x800 DUP2 DUP6 PUSH1 0x20 DUP7 ADD PUSH2 0x7BE JUMP JUMPDEST PUSH2 0x809 DUP2 PUSH2 0x7CC JUMP JUMPDEST DUP5 ADD SWAP2 POP POP SWAP3 SWAP2 POP POP JUMP JUMPDEST PUSH0 PUSH20 0xFFFFFFFFFFFFFFFFFFFFFFFFFFFFFFFFFFFFFFFF DUP3 AND SWAP1 POP SWAP2 SWAP1 POP JUMP JUMPDEST PUSH0 PUSH2 0x83D DUP3 PUSH2 0x814 JUMP JUMPDEST SWAP1 POP SWAP2 SWAP1 POP JUMP JUMPDEST PUSH2 0x84D DUP2 PUSH2 0x833 JUMP JUMPDEST DUP3 MSTORE POP POP JUMP JUMPDEST PUSH2 0x85C DUP2 PUSH2 0x746 JUMP JUMPDEST DUP3 MSTORE POP POP JUMP JUMPDEST PUSH0 DUP2 ISZERO ISZERO SWAP1 POP SWAP2 SWAP1 POP JUMP JUMPDEST PUSH2 0x876 DUP2 PUSH2 0x862 JUMP JUMPDEST DUP3 MSTORE POP POP JUMP JUMPDEST PUSH0 PUSH2 0x100 DUP3 ADD SWAP1 POP DUP2 DUP2 SUB PUSH0 DUP4 ADD MSTORE PUSH2 0x895 DUP2 DUP12 PUSH2 0x7DC JUMP JUMPDEST SWAP1 POP DUP2 DUP2 SUB PUSH1 0x20 DUP4 ADD MSTORE PUSH2 0x8A9 DUP2 DUP11 PUSH2 0x7DC JUMP JUMPDEST SWAP1 POP PUSH2 0x8B8 PUSH1 0x40 DUP4 ADD DUP10 PUSH2 0x844 JUMP JUMPDEST PUSH2 0x8C5 PUSH1 0x60 DUP4 ADD DUP9 PUSH2 0x853 JUMP JUMPDEST PUSH2 0x8D2 PUSH1 0x80 DUP4 ADD DUP8 PUSH2 0x853 JUMP JUMPDEST PUSH2 0x8DF PUSH1 0xA0 DUP4 ADD DUP7 PUSH2 0x853 JUMP JUMPDEST PUSH2 0x8EC PUSH1 0xC0 DUP4 ADD DUP6 PUSH2 0x86D JUMP JUMPDEST PUSH2 0x8F9 PUSH1 0xE0 DUP4 ADD DUP5 PUSH2 0x86D JUMP JUMPDEST SWAP10 SWAP9 POP POP POP POP POP POP POP POP POP JUMP JUMPDEST PUSH2 0x90F DUP2 PUSH2 0x833 JUMP JUMPDEST DUP2 EQ PUSH2 0x919 JUMPI PUSH0 DUP1 REVERT JUMPDEST POP JUMP JUMPDEST PUSH0 DUP2 CALLDATALOAD SWAP1 POP PUSH2 0x92A DUP2 PUSH2 0x906 JUMP JUMPDEST SWAP3 SWAP2 POP POP JUMP JUMPDEST PUSH0 DUP1 PUSH1 0x40 DUP4 DUP6 SUB SLT ISZERO PUSH2 0x946 JUMPI PUSH2 0x945 PUSH2 0x73E JUMP JUMPDEST JUMPDEST PUSH0 PUSH2 0x953 DUP6 DUP3 DUP7 ADD PUSH2 0x765 JUMP JUMPDEST SWAP3 POP POP PUSH1 0x20 PUSH2 0x964 DUP6 DUP3 DUP7 ADD PUSH2 0x91C JUMP JUMPDEST SWAP2 POP POP SWAP3 POP SWAP3 SWAP1 POP JUMP JUMPDEST PUSH0 PUSH1 0x20 DUP3 ADD SWAP1 POP PUSH2 0x981 PUSH0 DUP4 ADD DUP5 PUSH2 0x86D JUMP JUMPDEST SWAP3 SWAP2 POP POP JUMP JUMPDEST PUSH0 DUP1 REVERT JUMPDEST PUSH0 DUP1 REVERT JUMPDEST PUSH32 0x4E487B7100000000000000000000000000000000000000000000000000000000 PUSH0 MSTORE PUSH1 0x41 PUSH1 0x4 MSTORE PUSH1 0x24 PUSH0 REVERT JUMPDEST PUSH2 0x9C5 DUP3 PUSH2 0x7CC JUMP JUMPDEST DUP2 ADD DUP2 DUP2 LT PUSH8 0xFFFFFFFFFFFFFFFF DUP3 GT OR ISZERO PUSH2 0x9E4 JUMPI PUSH2 0x9E3 PUSH2 0x98F JUMP JUMPDEST JUMPDEST DUP1 PUSH1 0x40 MSTORE POP POP POP JUMP JUMPDEST PUSH0 PUSH2 0x9F6 PUSH2 0x735 JUMP JUMPDEST SWAP1 POP PUSH2 0xA02 DUP3 DUP3 PUSH2 0x9BC JUMP JUMPDEST SWAP2 SWAP1 POP JUMP JUMPDEST PUSH0 PUSH8 0xFFFFFFFFFFFFFFFF DUP3 GT ISZERO PUSH2 0xA21 JUMPI PUSH2 0xA20 PUSH2 0x98F JUMP JUMPDEST JUMPDEST PUSH2 0xA2A DUP3 PUSH2 0x7CC JUMP JUMPDEST SWAP1 POP PUSH1 0x20 DUP2 ADD SWAP1 POP SWAP2 SWAP1 POP JUMP JUMPDEST DUP3 DUP2 DUP4 CALLDATACOPY PUSH0 DUP4 DUP4 ADD MSTORE POP POP POP JUMP JUMPDEST PUSH0 PUSH2 0xA57 PUSH2 0xA52 DUP5 PUSH2 0xA07 JUMP JUMPDEST PUSH2 0x9ED JUMP JUMPDEST SWAP1 POP DUP3 DUP2 MSTORE PUSH1 0x20 DUP2 ADD DUP5 DUP5 DUP5 ADD GT ISZERO PUSH2 0xA73 JUMPI PUSH2 0xA72 PUSH2 0x98B JUMP JUMPDEST JUMPDEST PUSH2 0xA7E DUP5 DUP3 DUP6 PUSH2 0xA37 JUMP JUMPDEST POP SWAP4 SWAP3 POP POP POP JUMP JUMPDEST PUSH0 DUP3 PUSH1 0x1F DUP4 ADD SLT PUSH2 0xA9A JUMPI PUSH2 0xA99 PUSH2 0x987 JUMP JUMPDEST JUMPDEST DUP2 CALLDATALOAD PUSH2 0xAAA DUP5 DUP3 PUSH1 0x20 DUP7 ADD PUSH2 0xA45 JUMP JUMPDEST SWAP2 POP POP SWAP3 SWAP2 POP POP JUMP JUMPDEST PUSH0 DUP1 PUSH1 0x40 DUP4 DUP6 SUB SLT ISZERO PUSH2 0xAC9 JUMPI PUSH2 0xAC8 PUSH2 0x73E JUMP JUMPDEST JUMPDEST PUSH0 DUP4 ADD CALLDATALOAD PUSH8 0xFFFFFFFFFFFFFFFF DUP2 GT ISZERO PUSH2 0xAE6 JUMPI PUSH2 0xAE5 PUSH2 0x742 JUMP JUMPDEST JUMPDEST PUSH2 0xAF2 DUP6 DUP3 DUP7 ADD PUSH2 0xA86 JUMP JUMPDEST SWAP3 POP POP PUSH1 0x20 DUP4 ADD CALLDATALOAD PUSH8 0xFFFFFFFFFFFFFFFF DUP2 GT ISZERO PUSH2 0xB13 JUMPI PUSH2 0xB12 PUSH2 0x742 JUMP JUMPDEST JUMPDEST PUSH2 0xB1F DUP6 DUP3 DUP7 ADD PUSH2 0xA86 JUMP JUMPDEST SWAP2 POP POP SWAP3 POP SWAP3 SWAP1 POP JUMP JUMPDEST PUSH2 0xB32 DUP2 PUSH2 0x862 JUMP JUMPDEST DUP2 EQ PUSH2 0xB3C JUMPI PUSH0 DUP1 REVERT JUMPDEST POP JUMP JUMPDEST PUSH0 DUP2 CALLDATALOAD SWAP1 POP PUSH2 0xB4D DUP2 PUSH2 0xB29 JUMP JUMPDEST SWAP3 SWAP2 POP POP JUMP JUMPDEST PUSH0 DUP1 PUSH1 0x40 DUP4 DUP6 SUB SLT ISZERO PUSH2 0xB69 JUMPI PUSH2 0xB68 PUSH2 0x73E JUMP JUMPDEST JUMPDEST PUSH0 PUSH2 0xB76 DUP6 DUP3 DUP7 ADD PUSH2 0x765 JUMP JUMPDEST SWAP3 POP POP PUSH1 0x20 PUSH2 0xB87 DUP6 DUP3 DUP7 ADD PUSH2 0xB3F JUMP JUMPDEST SWAP2 POP POP SWAP3 POP SWAP3 SWAP1 POP JUMP JUMPDEST PUSH0 PUSH1 0x20 DUP3 ADD SWAP1 POP PUSH2 0xBA4 PUSH0 DUP4 ADD DUP5 PUSH2 0x853 JUMP JUMPDEST SWAP3 SWAP2 POP POP JUMP JUMPDEST PUSH32 0x4E487B7100000000000000000000000000000000000000000000000000000000 PUSH0 MSTORE PUSH1 0x22 PUSH1 0x4 MSTORE PUSH1 0x24 PUSH0 REVERT JUMPDEST PUSH0 PUSH1 0x2 DUP3 DIV SWAP1 POP PUSH1 0x1 DUP3 AND DUP1 PUSH2 0xBEE JUMPI PUSH1 0x7F DUP3 AND SWAP2 POP JUMPDEST PUSH1 0x20 DUP3 LT DUP2 SUB PUSH2 0xC01 JUMPI PUSH2 0xC00 PUSH2 0xBAA JUMP JUMPDEST JUMPDEST POP SWAP2 SWAP1 POP JUMP JUMPDEST PUSH32 0x4E487B7100000000000000000000000000000000000000000000000000000000 PUSH0 MSTORE PUSH1 0x11 PUSH1 0x4 MSTORE PUSH1 0x24 PUSH0 REVERT JUMPDEST PUSH0 PUSH2 0xC3E DUP3 PUSH2 0x746 JUMP JUMPDEST SWAP2 POP PUSH2 0xC49 DUP4 PUSH2 0x746 JUMP JUMPDEST SWAP3 POP DUP3 DUP3 SUB SWAP1 POP DUP2 DUP2 GT ISZERO PUSH2 0xC61 JUMPI PUSH2 0xC60 PUSH2 0xC07 JUMP JUMPDEST JUMPDEST SWAP3 SWAP2 POP POP JUMP JUMPDEST PUSH32 0x566F746520776173206E6F742066696E697368206F7220616C72656164792066 PUSH0 DUP3 ADD MSTORE PUSH32 0x696E6973682E0000000000000000000000000000000000000000000000000000 PUSH1 0x20 DUP3 ADD MSTORE POP JUMP JUMPDEST PUSH0 PUSH2 0xCC1 PUSH1 0x26 DUP4 PUSH2 0x7AE JUMP JUMPDEST SWAP2 POP PUSH2 0xCCC DUP3 PUSH2 0xC67 JUMP JUMPDEST PUSH1 0x40 DUP3 ADD SWAP1 POP SWAP2 SWAP1 POP JUMP JUMPDEST PUSH0 PUSH1 0x20 DUP3 ADD SWAP1 POP DUP2 DUP2 SUB PUSH0 DUP4 ADD MSTORE PUSH2 0xCEE DUP2 PUSH2 0xCB5 JUMP JUMPDEST SWAP1 POP SWAP2 SWAP1 POP JUMP JUMPDEST POP JUMP JUMPDEST PUSH0 PUSH2 0xD03 PUSH0 DUP4 PUSH2 0x7AE JUMP JUMPDEST SWAP2 POP PUSH2 0xD0E DUP3 PUSH2 0xCF5 JUMP JUMPDEST PUSH0 DUP3 ADD SWAP1 POP SWAP2 SWAP1 POP JUMP JUMPDEST PUSH0 PUSH1 0x20 DUP3 ADD SWAP1 POP DUP2 DUP2 SUB PUSH0 DUP4 ADD MSTORE PUSH2 0xD2F DUP2 PUSH2 0xCF8 JUMP JUMPDEST SWAP1 POP SWAP2 SWAP1 POP JUMP JUMPDEST PUSH0 PUSH2 0xD40 DUP3 PUSH2 0x746 JUMP JUMPDEST SWAP2 POP PUSH32 0xFFFFFFFFFFFFFFFFFFFFFFFFFFFFFFFFFFFFFFFFFFFFFFFFFFFFFFFFFFFFFFFF DUP3 SUB PUSH2 0xD72 JUMPI PUSH2 0xD71 PUSH2 0xC07 JUMP JUMPDEST JUMPDEST PUSH1 0x1 DUP3 ADD SWAP1 POP SWAP2 SWAP1 POP JUMP JUMPDEST PUSH0 DUP2 SWAP1 POP DUP2 PUSH0 MSTORE PUSH1 0x20 PUSH0 KECCAK256 SWAP1 POP SWAP2 SWAP1 POP JUMP JUMPDEST PUSH0 PUSH1 0x20 PUSH1 0x1F DUP4 ADD DIV SWAP1 POP SWAP2 SWAP1 POP JUMP JUMPDEST PUSH0 DUP3 DUP3 SHL SWAP1 POP SWAP3 SWAP2 POP POP JUMP JUMPDEST PUSH0 PUSH1 0x8 DUP4 MUL PUSH2 0xDD9 PUSH32 0xFFFFFFFFFFFFFFFFFFFFFFFFFFFFFFFFFFFFFFFFFFFFFFFFFFFFFFFFFFFFFFFF DUP3 PUSH2 0xD9E JUMP JUMPDEST PUSH2 0xDE3 DUP7 DUP4 PUSH2 0xD9E JUMP JUMPDEST SWAP6 POP DUP1 NOT DUP5 AND SWAP4 POP DUP1 DUP7 AND DUP5 OR SWAP3 POP POP POP SWAP4 SWAP3 POP POP POP JUMP JUMPDEST PUSH0 DUP2 SWAP1 POP SWAP2 SWAP1 POP JUMP JUMPDEST PUSH0 PUSH2 0xE1E PUSH2 0xE19 PUSH2 0xE14 DUP5 PUSH2 0x746 JUMP JUMPDEST PUSH2 0xDFB JUMP JUMPDEST PUSH2 0x746 JUMP JUMPDEST SWAP1 POP SWAP2 SWAP1 POP JUMP JUMPDEST PUSH0 DUP2 SWAP1 POP SWAP2 SWAP1 POP JUMP JUMPDEST PUSH2 0xE37 DUP4 PUSH2 0xE04 JUMP JUMPDEST PUSH2 0xE4B PUSH2 0xE43 DUP3 PUSH2 0xE25 JUMP JUMPDEST DUP5 DUP5 SLOAD PUSH2 0xDAA JUMP JUMPDEST DUP3 SSTORE POP POP POP POP JUMP JUMPDEST PUSH0 SWAP1 JUMP JUMPDEST PUSH2 0xE5F PUSH2 0xE53 JUMP JUMPDEST PUSH2 0xE6A DUP2 DUP5 DUP5 PUSH2 0xE2E JUMP JUMPDEST POP POP POP JUMP JUMPDEST JUMPDEST DUP2 DUP2 LT ISZERO PUSH2 0xE8D JUMPI PUSH2 0xE82 PUSH0 DUP3 PUSH2 0xE57 JUMP JUMPDEST PUSH1 0x1 DUP2 ADD SWAP1 POP PUSH2 0xE70 JUMP JUMPDEST POP POP JUMP JUMPDEST PUSH1 0x1F DUP3 GT ISZERO PUSH2 0xED2 JUMPI PUSH2 0xEA3 DUP2 PUSH2 0xD7D JUMP JUMPDEST PUSH2 0xEAC DUP5 PUSH2 0xD8F JUMP JUMPDEST DUP2 ADD PUSH1 0x20 DUP6 LT ISZERO PUSH2 0xEBB JUMPI DUP2 SWAP1 POP JUMPDEST PUSH2 0xECF PUSH2 0xEC7 DUP6 PUSH2 0xD8F JUMP JUMPDEST DUP4 ADD DUP3 PUSH2 0xE6F JUMP JUMPDEST POP POP JUMPDEST POP POP POP JUMP JUMPDEST PUSH0 DUP3 DUP3 SHR SWAP1 POP SWAP3 SWAP2 POP POP JUMP JUMPDEST PUSH0 PUSH2 0xEF2 PUSH0 NOT DUP5 PUSH1 0x8 MUL PUSH2 0xED7 JUMP JUMPDEST NOT DUP1 DUP4 AND SWAP2 POP POP SWAP3 SWAP2 POP POP JUMP JUMPDEST PUSH0 PUSH2 0xF0A DUP4 DUP4 PUSH2 0xEE3 JUMP JUMPDEST SWAP2 POP DUP3 PUSH1 0x2 MUL DUP3 OR SWAP1 POP SWAP3 SWAP2 POP POP JUMP JUMPDEST PUSH2 0xF23 DUP3 PUSH2 0x7A4 JUMP JUMPDEST PUSH8 0xFFFFFFFFFFFFFFFF DUP2 GT ISZERO PUSH2 0xF3C JUMPI PUSH2 0xF3B PUSH2 0x98F JUMP JUMPDEST JUMPDEST PUSH2 0xF46 DUP3 SLOAD PUSH2 0xBD7 JUMP JUMPDEST PUSH2 0xF51 DUP3 DUP3 DUP6 PUSH2 0xE91 JUMP JUMPDEST PUSH0 PUSH1 0x20 SWAP1 POP PUSH1 0x1F DUP4 GT PUSH1 0x1 DUP2 EQ PUSH2 0xF82 JUMPI PUSH0 DUP5 ISZERO PUSH2 0xF70 JUMPI DUP3 DUP8 ADD MLOAD SWAP1 POP JUMPDEST PUSH2 0xF7A DUP6 DUP3 PUSH2 0xEFF JUMP JUMPDEST DUP7 SSTORE POP PUSH2 0xFE1 JUMP JUMPDEST PUSH1 0x1F NOT DUP5 AND PUSH2 0xF90 DUP7 PUSH2 0xD7D JUMP JUMPDEST PUSH0 JUMPDEST DUP3 DUP2 LT ISZERO PUSH2 0xFB7 JUMPI DUP5 DUP10 ADD MLOAD DUP3 SSTORE PUSH1 0x1 DUP3 ADD SWAP2 POP PUSH1 0x20 DUP6 ADD SWAP5 POP PUSH1 0x20 DUP2 ADD SWAP1 POP PUSH2 0xF92 JUMP JUMPDEST DUP7 DUP4 LT ISZERO PUSH2 0xFD4 JUMPI DUP5 DUP10 ADD MLOAD PUSH2 0xFD0 PUSH1 0x1F DUP10 AND DUP3 PUSH2 0xEE3 JUMP JUMPDEST DUP4 SSTORE POP JUMPDEST PUSH1 0x1 PUSH1 0x2 DUP9 MUL ADD DUP9 SSTORE POP POP POP JUMPDEST POP POP POP POP POP POP JUMP JUMPDEST PUSH32 0x566F74652063616E6E6F742062652073656E642E000000000000000000000000 PUSH0 DUP3 ADD MSTORE POP JUMP JUMPDEST PUSH0 PUSH2 0x101D PUSH1 0x14 DUP4 PUSH2 0x7AE JUMP JUMPDEST SWAP2 POP PUSH2 0x1028 DUP3 PUSH2 0xFE9 JUMP JUMPDEST PUSH1 0x20 DUP3 ADD SWAP1 POP SWAP2 SWAP1 POP JUMP JUMPDEST PUSH0 PUSH1 0x20 DUP3 ADD SWAP1 POP DUP2 DUP2 SUB PUSH0 DUP4 ADD MSTORE PUSH2 0x104A DUP2 PUSH2 0x1011 JUMP JUMPDEST SWAP1 POP SWAP2 SWAP1 POP JUMP INVALID LOG2 PUSH5 0x6970667358 0x22 SLT KECCAK256 0xAD 0xBB PUSH8 0x45369EBABB023D53 0xBE CALLER 0x27 0xBC 0xDE DIV PUSH27 0x4063AEB57C7E7840D84752C0452364736F6C634300081A00330000 "
				},
				"gasEstimates": {
					"creation": {
						"codeDepositCost": "846200",
						"executionCost": "881",
						"totalCost": "847081"
					},
					"external": {
						"finalizeProposal(uint256)": "infinite",
						"hasVoted(uint256,address)": "3071",
						"proposalCount()": "2513",
						"proposals(uint256)": "infinite",
						"proposeLaw(string,string)": "infinite",
						"vote(uint256,bool)": "infinite"
					}
				},
				"methodIdentifiers": {
					"finalizeProposal(uint256)": "5652077c",
					"hasVoted(uint256,address)": "43859632",
					"proposalCount()": "da35c664",
					"proposals(uint256)": "013cf08b",
					"proposeLaw(string,string)": "a91703ec",
					"vote(uint256,bool)": "c9d27afe"
				}
			},
			"storageLayout": {
				"storage": [
					{
						"astId": 23,
						"contract": "contracts/4_AthenianDemocracy.sol:AthenianDemocracy",
						"label": "proposals",
						"offset": 0,
						"slot": "0",
						"type": "t_mapping(t_uint256,t_struct(Proposal)18_storage)"
					},
					{
						"astId": 29,
						"contract": "contracts/4_AthenianDemocracy.sol:AthenianDemocracy",
						"label": "hasVoted",
						"offset": 0,
						"slot": "1",
						"type": "t_mapping(t_uint256,t_mapping(t_address,t_bool))"
					},
					{
						"astId": 31,
						"contract": "contracts/4_AthenianDemocracy.sol:AthenianDemocracy",
						"label": "proposalCount",
						"offset": 0,
						"slot": "2",
						"type": "t_uint256"
					}
				],
				"types": {
					"t_address": {
						"encoding": "inplace",
						"label": "address",
						"numberOfBytes": "20"
					},
					"t_bool": {
						"encoding": "inplace",
						"label": "bool",
						"numberOfBytes": "1"
					},
					"t_mapping(t_address,t_bool)": {
						"encoding": "mapping",
						"key": "t_address",
						"label": "mapping(address => bool)",
						"numberOfBytes": "32",
						"value": "t_bool"
					},
					"t_mapping(t_uint256,t_mapping(t_address,t_bool))": {
						"encoding": "mapping",
						"key": "t_uint256",
						"label": "mapping(uint256 => mapping(address => bool))",
						"numberOfBytes": "32",
						"value": "t_mapping(t_address,t_bool)"
					},
					"t_mapping(t_uint256,t_struct(Proposal)18_storage)": {
						"encoding": "mapping",
						"key": "t_uint256",
						"label": "mapping(uint256 => struct AthenianDemocracy.Proposal)",
						"numberOfBytes": "32",
						"value": "t_struct(Proposal)18_storage"
					},
					"t_string_storage": {
						"encoding": "bytes",
						"label": "string",
						"numberOfBytes": "32"
					},
					"t_struct(Proposal)18_storage": {
						"encoding": "inplace",
						"label": "struct AthenianDemocracy.Proposal",
						"members": [
							{
								"astId": 3,
								"contract": "contracts/4_AthenianDemocracy.sol:AthenianDemocracy",
								"label": "ipfsHash",
								"offset": 0,
								"slot": "0",
								"type": "t_string_storage"
							},
							{
								"astId": 5,
								"contract": "contracts/4_AthenianDemocracy.sol:AthenianDemocracy",
								"label": "description",
								"offset": 0,
								"slot": "1",
								"type": "t_string_storage"
							},
							{
								"astId": 7,
								"contract": "contracts/4_AthenianDemocracy.sol:AthenianDemocracy",
								"label": "proposer",
								"offset": 0,
								"slot": "2",
								"type": "t_address"
							},
							{
								"astId": 9,
								"contract": "contracts/4_AthenianDemocracy.sol:AthenianDemocracy",
								"label": "approvals",
								"offset": 0,
								"slot": "3",
								"type": "t_uint256"
							},
							{
								"astId": 11,
								"contract": "contracts/4_AthenianDemocracy.sol:AthenianDemocracy",
								"label": "rejections",
								"offset": 0,
								"slot": "4",
								"type": "t_uint256"
							},
							{
								"astId": 13,
								"contract": "contracts/4_AthenianDemocracy.sol:AthenianDemocracy",
								"label": "timestamp",
								"offset": 0,
								"slot": "5",
								"type": "t_uint256"
							},
							{
								"astId": 15,
								"contract": "contracts/4_AthenianDemocracy.sol:AthenianDemocracy",
								"label": "finalized",
								"offset": 0,
								"slot": "6",
								"type": "t_bool"
							},
							{
								"astId": 17,
								"contract": "contracts/4_AthenianDemocracy.sol:AthenianDemocracy",
								"label": "passed",
								"offset": 1,
								"slot": "6",
								"type": "t_bool"
							}
						],
						"numberOfBytes": "224"
					},
					"t_uint256": {
						"encoding": "inplace",
						"label": "uint256",
						"numberOfBytes": "32"
					}
				}
			},
			"userdoc": {
				"kind": "user",
				"methods": {},
				"version": 1
			}
		}
	}
}